{
  "_format": "hh-sol-artifact-1",
  "contractName": "SpermBank",
  "sourceName": "contracts/SpermBank.sol",
  "abi": [
    {
      "inputs": [],
      "stateMutability": "nonpayable",
      "type": "constructor"
    },
    {
      "anonymous": false,
      "inputs": [
        {
          "indexed": false,
          "internalType": "uint256",
          "name": "donationId",
          "type": "uint256"
        },
        {
          "indexed": false,
          "internalType": "address",
          "name": "donorAddress",
          "type": "address"
        }
      ],
      "name": "DonationReceived",
      "type": "event"
    },
    {
      "anonymous": false,
      "inputs": [
        {
          "indexed": false,
          "internalType": "address",
          "name": "donorAddress",
          "type": "address"
        }
      ],
      "name": "DonorRegistered",
      "type": "event"
    },
    {
      "anonymous": false,
      "inputs": [
        {
          "indexed": false,
          "internalType": "address",
          "name": "receiverAddress",
          "type": "address"
        },
        {
          "indexed": false,
          "internalType": "address",
          "name": "donorAddress",
          "type": "address"
        }
      ],
      "name": "SpermReceived",
      "type": "event"
    },
    {
      "inputs": [],
      "name": "admin",
      "outputs": [
        {
          "internalType": "address",
          "name": "",
          "type": "address"
        }
      ],
      "stateMutability": "view",
      "type": "function"
    },
    {
      "inputs": [],
      "name": "donateSperm",
      "outputs": [],
      "stateMutability": "nonpayable",
      "type": "function"
    },
    {
      "inputs": [
        {
          "internalType": "uint256",
          "name": "",
          "type": "uint256"
        }
      ],
      "name": "donations",
      "outputs": [
        {
          "internalType": "uint256",
          "name": "id",
          "type": "uint256"
        },
        {
          "internalType": "address",
          "name": "donorAddress",
          "type": "address"
        },
        {
          "internalType": "uint256",
          "name": "timestamp",
          "type": "uint256"
        }
      ],
      "stateMutability": "view",
      "type": "function"
    },
    {
      "inputs": [
        {
          "internalType": "uint256",
          "name": "",
          "type": "uint256"
        }
      ],
      "name": "donorAddresses",
      "outputs": [
        {
          "internalType": "address",
          "name": "",
          "type": "address"
        }
      ],
      "stateMutability": "view",
      "type": "function"
    },
    {
      "inputs": [
        {
          "internalType": "address",
          "name": "",
          "type": "address"
        }
      ],
      "name": "donors",
      "outputs": [
        {
          "internalType": "address",
          "name": "donorAddress",
          "type": "address"
        },
        {
          "components": [
            {
              "internalType": "string",
              "name": "bloodType",
              "type": "string"
            },
            {
              "internalType": "bool",
              "name": "hav",
              "type": "bool"
            },
            {
              "internalType": "bool",
              "name": "hbv",
              "type": "bool"
            },
            {
              "internalType": "bool",
              "name": "hcv",
              "type": "bool"
            },
            {
              "internalType": "bool",
              "name": "venerealDisease",
              "type": "bool"
            }
          ],
          "internalType": "struct SpermBank.BloodInfo",
          "name": "bloodInfo",
          "type": "tuple"
        },
        {
          "components": [
            {
              "internalType": "uint256",
              "name": "semenVolume",
              "type": "uint256"
            },
            {
              "internalType": "uint256",
              "name": "spermCount",
              "type": "uint256"
            },
            {
              "internalType": "string",
              "name": "spermMotility",
              "type": "string"
            },
            {
              "internalType": "string",
              "name": "spermShape",
              "type": "string"
            }
          ],
          "internalType": "struct SpermBank.SemenTestInfo",
          "name": "semenTestInfo",
          "type": "tuple"
        },
        {
          "components": [
            {
              "components": [
                {
                  "internalType": "bool",
                  "name": "mentalRetardation",
                  "type": "bool"
                },
                {
                  "internalType": "bool",
                  "name": "mentalIllness",
                  "type": "bool"
                },
                {
                  "internalType": "bool",
                  "name": "epilepsy",
                  "type": "bool"
                },
                {
                  "internalType": "string[]",
                  "name": "otherConditions",
                  "type": "string[]"
                }
              ],
              "internalType": "struct SpermBank.MedicalHistory",
              "name": "medicalHistory",
              "type": "tuple"
            },
            {
              "components": [
                {
                  "internalType": "bool",
                  "name": "drugUse",
                  "type": "bool"
                },
                {
                  "internalType": "string[]",
                  "name": "otherConditions",
                  "type": "string[]"
                }
              ],
              "internalType": "struct SpermBank.PastHistory",
              "name": "pastHistory",
              "type": "tuple"
            },
            {
              "internalType": "string[]",
              "name": "geneticDisorders",
              "type": "string[]"
            },
            {
              "components": [
                {
                  "internalType": "string",
                  "name": "relation",
                  "type": "string"
                },
                {
                  "internalType": "string",
                  "name": "condition",
                  "type": "string"
                }
              ],
              "internalType": "struct SpermBank.FamilyHistory[]",
              "name": "familyHistory",
              "type": "tuple[]"
            }
          ],
          "internalType": "struct SpermBank.InterviewInfo",
          "name": "interviewInfo",
          "type": "tuple"
        },
        {
          "components": [
            {
              "internalType": "uint256",
              "name": "height",
              "type": "uint256"
            },
            {
              "internalType": "uint256",
              "name": "weight",
              "type": "uint256"
            },
            {
              "internalType": "string",
              "name": "bodyType",
              "type": "string"
            },
            {
              "internalType": "string",
              "name": "ethnicity",
              "type": "string"
            },
            {
              "internalType": "string",
              "name": "personality",
              "type": "string"
            },
            {
              "internalType": "string",
              "name": "education",
              "type": "string"
            },
            {
              "internalType": "string",
              "name": "religion",
              "type": "string"
            }
          ],
          "internalType": "struct SpermBank.PhysicalInfo",
          "name": "physicalInfo",
          "type": "tuple"
        },
        {
          "internalType": "bool",
          "name": "isRegistered",
          "type": "bool"
        }
      ],
      "stateMutability": "view",
      "type": "function"
    },
    {
      "inputs": [],
      "name": "getAllDonors",
      "outputs": [
        {
          "components": [
            {
              "internalType": "address",
              "name": "donorAddress",
              "type": "address"
            },
            {
              "components": [
                {
                  "internalType": "string",
                  "name": "bloodType",
                  "type": "string"
                },
                {
                  "internalType": "bool",
                  "name": "hav",
                  "type": "bool"
                },
                {
                  "internalType": "bool",
                  "name": "hbv",
                  "type": "bool"
                },
                {
                  "internalType": "bool",
                  "name": "hcv",
                  "type": "bool"
                },
                {
                  "internalType": "bool",
                  "name": "venerealDisease",
                  "type": "bool"
                }
              ],
              "internalType": "struct SpermBank.BloodInfo",
              "name": "bloodInfo",
              "type": "tuple"
            },
            {
              "components": [
                {
                  "internalType": "uint256",
                  "name": "semenVolume",
                  "type": "uint256"
                },
                {
                  "internalType": "uint256",
                  "name": "spermCount",
                  "type": "uint256"
                },
                {
                  "internalType": "string",
                  "name": "spermMotility",
                  "type": "string"
                },
                {
                  "internalType": "string",
                  "name": "spermShape",
                  "type": "string"
                }
              ],
              "internalType": "struct SpermBank.SemenTestInfo",
              "name": "semenTestInfo",
              "type": "tuple"
            },
            {
              "components": [
                {
                  "components": [
                    {
                      "internalType": "bool",
                      "name": "mentalRetardation",
                      "type": "bool"
                    },
                    {
                      "internalType": "bool",
                      "name": "mentalIllness",
                      "type": "bool"
                    },
                    {
                      "internalType": "bool",
                      "name": "epilepsy",
                      "type": "bool"
                    },
                    {
                      "internalType": "string[]",
                      "name": "otherConditions",
                      "type": "string[]"
                    }
                  ],
                  "internalType": "struct SpermBank.MedicalHistory",
                  "name": "medicalHistory",
                  "type": "tuple"
                },
                {
                  "components": [
                    {
                      "internalType": "bool",
                      "name": "drugUse",
                      "type": "bool"
                    },
                    {
                      "internalType": "string[]",
                      "name": "otherConditions",
                      "type": "string[]"
                    }
                  ],
                  "internalType": "struct SpermBank.PastHistory",
                  "name": "pastHistory",
                  "type": "tuple"
                },
                {
                  "internalType": "string[]",
                  "name": "geneticDisorders",
                  "type": "string[]"
                },
                {
                  "components": [
                    {
                      "internalType": "string",
                      "name": "relation",
                      "type": "string"
                    },
                    {
                      "internalType": "string",
                      "name": "condition",
                      "type": "string"
                    }
                  ],
                  "internalType": "struct SpermBank.FamilyHistory[]",
                  "name": "familyHistory",
                  "type": "tuple[]"
                }
              ],
              "internalType": "struct SpermBank.InterviewInfo",
              "name": "interviewInfo",
              "type": "tuple"
            },
            {
              "components": [
                {
                  "internalType": "uint256",
                  "name": "height",
                  "type": "uint256"
                },
                {
                  "internalType": "uint256",
                  "name": "weight",
                  "type": "uint256"
                },
                {
                  "internalType": "string",
                  "name": "bodyType",
                  "type": "string"
                },
                {
                  "internalType": "string",
                  "name": "ethnicity",
                  "type": "string"
                },
                {
                  "internalType": "string",
                  "name": "personality",
                  "type": "string"
                },
                {
                  "internalType": "string",
                  "name": "education",
                  "type": "string"
                },
                {
                  "internalType": "string",
                  "name": "religion",
                  "type": "string"
                }
              ],
              "internalType": "struct SpermBank.PhysicalInfo",
              "name": "physicalInfo",
              "type": "tuple"
            },
            {
              "internalType": "bool",
              "name": "isRegistered",
              "type": "bool"
            }
          ],
          "internalType": "struct SpermBank.Donor[]",
          "name": "",
          "type": "tuple[]"
        }
      ],
      "stateMutability": "view",
      "type": "function"
    },
    {
      "inputs": [],
      "name": "getDonationHistory",
      "outputs": [
        {
          "components": [
            {
              "internalType": "uint256",
              "name": "id",
              "type": "uint256"
            },
            {
              "internalType": "address",
              "name": "donorAddress",
              "type": "address"
            },
            {
              "internalType": "uint256",
              "name": "timestamp",
              "type": "uint256"
            }
          ],
          "internalType": "struct SpermBank.Donation[]",
          "name": "",
          "type": "tuple[]"
        }
      ],
      "stateMutability": "view",
      "type": "function"
    },
    {
      "inputs": [
        {
          "internalType": "address",
          "name": "_donorAddress",
          "type": "address"
        }
      ],
      "name": "getDonorInfo",
      "outputs": [
        {
          "components": [
            {
              "internalType": "address",
              "name": "donorAddress",
              "type": "address"
            },
            {
              "components": [
                {
                  "internalType": "string",
                  "name": "bloodType",
                  "type": "string"
                },
                {
                  "internalType": "bool",
                  "name": "hav",
                  "type": "bool"
                },
                {
                  "internalType": "bool",
                  "name": "hbv",
                  "type": "bool"
                },
                {
                  "internalType": "bool",
                  "name": "hcv",
                  "type": "bool"
                },
                {
                  "internalType": "bool",
                  "name": "venerealDisease",
                  "type": "bool"
                }
              ],
              "internalType": "struct SpermBank.BloodInfo",
              "name": "bloodInfo",
              "type": "tuple"
            },
            {
              "components": [
                {
                  "internalType": "uint256",
                  "name": "semenVolume",
                  "type": "uint256"
                },
                {
                  "internalType": "uint256",
                  "name": "spermCount",
                  "type": "uint256"
                },
                {
                  "internalType": "string",
                  "name": "spermMotility",
                  "type": "string"
                },
                {
                  "internalType": "string",
                  "name": "spermShape",
                  "type": "string"
                }
              ],
              "internalType": "struct SpermBank.SemenTestInfo",
              "name": "semenTestInfo",
              "type": "tuple"
            },
            {
              "components": [
                {
                  "components": [
                    {
                      "internalType": "bool",
                      "name": "mentalRetardation",
                      "type": "bool"
                    },
                    {
                      "internalType": "bool",
                      "name": "mentalIllness",
                      "type": "bool"
                    },
                    {
                      "internalType": "bool",
                      "name": "epilepsy",
                      "type": "bool"
                    },
                    {
                      "internalType": "string[]",
                      "name": "otherConditions",
                      "type": "string[]"
                    }
                  ],
                  "internalType": "struct SpermBank.MedicalHistory",
                  "name": "medicalHistory",
                  "type": "tuple"
                },
                {
                  "components": [
                    {
                      "internalType": "bool",
                      "name": "drugUse",
                      "type": "bool"
                    },
                    {
                      "internalType": "string[]",
                      "name": "otherConditions",
                      "type": "string[]"
                    }
                  ],
                  "internalType": "struct SpermBank.PastHistory",
                  "name": "pastHistory",
                  "type": "tuple"
                },
                {
                  "internalType": "string[]",
                  "name": "geneticDisorders",
                  "type": "string[]"
                },
                {
                  "components": [
                    {
                      "internalType": "string",
                      "name": "relation",
                      "type": "string"
                    },
                    {
                      "internalType": "string",
                      "name": "condition",
                      "type": "string"
                    }
                  ],
                  "internalType": "struct SpermBank.FamilyHistory[]",
                  "name": "familyHistory",
                  "type": "tuple[]"
                }
              ],
              "internalType": "struct SpermBank.InterviewInfo",
              "name": "interviewInfo",
              "type": "tuple"
            },
            {
              "components": [
                {
                  "internalType": "uint256",
                  "name": "height",
                  "type": "uint256"
                },
                {
                  "internalType": "uint256",
                  "name": "weight",
                  "type": "uint256"
                },
                {
                  "internalType": "string",
                  "name": "bodyType",
                  "type": "string"
                },
                {
                  "internalType": "string",
                  "name": "ethnicity",
                  "type": "string"
                },
                {
                  "internalType": "string",
                  "name": "personality",
                  "type": "string"
                },
                {
                  "internalType": "string",
                  "name": "education",
                  "type": "string"
                },
                {
                  "internalType": "string",
                  "name": "religion",
                  "type": "string"
                }
              ],
              "internalType": "struct SpermBank.PhysicalInfo",
              "name": "physicalInfo",
              "type": "tuple"
            },
            {
              "internalType": "bool",
              "name": "isRegistered",
              "type": "bool"
            }
          ],
          "internalType": "struct SpermBank.Donor",
          "name": "",
          "type": "tuple"
        }
      ],
      "stateMutability": "view",
      "type": "function"
    },
    {
      "inputs": [
        {
          "internalType": "address",
          "name": "_donorAddress",
          "type": "address"
        }
      ],
      "name": "getReceiverByDonorAddress",
      "outputs": [
        {
          "components": [
            {
              "internalType": "address",
              "name": "receiverAddress",
              "type": "address"
            },
            {
              "internalType": "address",
              "name": "donorAddress",
              "type": "address"
            },
            {
              "internalType": "uint256",
              "name": "timestamp",
              "type": "uint256"
            }
          ],
          "internalType": "struct SpermBank.Receiver[]",
          "name": "",
          "type": "tuple[]"
        }
      ],
      "stateMutability": "view",
      "type": "function"
    },
    {
      "inputs": [],
      "name": "getReceiverHistory",
      "outputs": [
        {
          "components": [
            {
              "internalType": "address",
              "name": "receiverAddress",
              "type": "address"
            },
            {
              "internalType": "address",
              "name": "donorAddress",
              "type": "address"
            },
            {
              "internalType": "uint256",
              "name": "timestamp",
              "type": "uint256"
            }
          ],
          "internalType": "struct SpermBank.Receiver[]",
          "name": "",
          "type": "tuple[]"
        }
      ],
      "stateMutability": "view",
      "type": "function"
    },
    {
      "inputs": [
        {
          "internalType": "uint256",
          "name": "",
          "type": "uint256"
        }
      ],
      "name": "receivers",
      "outputs": [
        {
          "internalType": "address",
          "name": "receiverAddress",
          "type": "address"
        },
        {
          "internalType": "address",
          "name": "donorAddress",
          "type": "address"
        },
        {
          "internalType": "uint256",
          "name": "timestamp",
          "type": "uint256"
        }
      ],
      "stateMutability": "view",
      "type": "function"
    },
    {
      "inputs": [
        {
          "components": [
            {
              "internalType": "string",
              "name": "bloodType",
              "type": "string"
            },
            {
              "internalType": "bool",
              "name": "hav",
              "type": "bool"
            },
            {
              "internalType": "bool",
              "name": "hbv",
              "type": "bool"
            },
            {
              "internalType": "bool",
              "name": "hcv",
              "type": "bool"
            },
            {
              "internalType": "bool",
              "name": "venerealDisease",
              "type": "bool"
            }
          ],
          "internalType": "struct SpermBank.BloodInfo",
          "name": "_bloodInfo",
          "type": "tuple"
        },
        {
          "components": [
            {
              "internalType": "uint256",
              "name": "semenVolume",
              "type": "uint256"
            },
            {
              "internalType": "uint256",
              "name": "spermCount",
              "type": "uint256"
            },
            {
              "internalType": "string",
              "name": "spermMotility",
              "type": "string"
            },
            {
              "internalType": "string",
              "name": "spermShape",
              "type": "string"
            }
          ],
          "internalType": "struct SpermBank.SemenTestInfo",
          "name": "_semenTestInfo",
          "type": "tuple"
        },
        {
          "components": [
            {
              "components": [
                {
                  "internalType": "bool",
                  "name": "mentalRetardation",
                  "type": "bool"
                },
                {
                  "internalType": "bool",
                  "name": "mentalIllness",
                  "type": "bool"
                },
                {
                  "internalType": "bool",
                  "name": "epilepsy",
                  "type": "bool"
                },
                {
                  "internalType": "string[]",
                  "name": "otherConditions",
                  "type": "string[]"
                }
              ],
              "internalType": "struct SpermBank.MedicalHistory",
              "name": "medicalHistory",
              "type": "tuple"
            },
            {
              "components": [
                {
                  "internalType": "bool",
                  "name": "drugUse",
                  "type": "bool"
                },
                {
                  "internalType": "string[]",
                  "name": "otherConditions",
                  "type": "string[]"
                }
              ],
              "internalType": "struct SpermBank.PastHistory",
              "name": "pastHistory",
              "type": "tuple"
            },
            {
              "internalType": "string[]",
              "name": "geneticDisorders",
              "type": "string[]"
            },
            {
              "components": [
                {
                  "internalType": "string",
                  "name": "relation",
                  "type": "string"
                },
                {
                  "internalType": "string",
                  "name": "condition",
                  "type": "string"
                }
              ],
              "internalType": "struct SpermBank.FamilyHistory[]",
              "name": "familyHistory",
              "type": "tuple[]"
            }
          ],
          "internalType": "struct SpermBank.InterviewInfo",
          "name": "_interviewInfo",
          "type": "tuple"
        },
        {
          "components": [
            {
              "internalType": "uint256",
              "name": "height",
              "type": "uint256"
            },
            {
              "internalType": "uint256",
              "name": "weight",
              "type": "uint256"
            },
            {
              "internalType": "string",
              "name": "bodyType",
              "type": "string"
            },
            {
              "internalType": "string",
              "name": "ethnicity",
              "type": "string"
            },
            {
              "internalType": "string",
              "name": "personality",
              "type": "string"
            },
            {
              "internalType": "string",
              "name": "education",
              "type": "string"
            },
            {
              "internalType": "string",
              "name": "religion",
              "type": "string"
            }
          ],
          "internalType": "struct SpermBank.PhysicalInfo",
          "name": "_physicalInfo",
          "type": "tuple"
        }
      ],
      "name": "registerDonor",
      "outputs": [],
      "stateMutability": "nonpayable",
      "type": "function"
    },
    {
      "inputs": [
        {
          "internalType": "address",
          "name": "_receiver",
          "type": "address"
        },
        {
          "internalType": "address",
          "name": "_donorAddress",
          "type": "address"
        }
      ],
      "name": "spermReceive",
      "outputs": [],
      "stateMutability": "nonpayable",
      "type": "function"
    }
  ],
  "bytecode": "0x608060405234801561001057600080fd5b5033600460006101000a81548173ffffffffffffffffffffffffffffffffffffffff021916908373ffffffffffffffffffffffffffffffffffffffff160217905550615178806100616000396000f3fe608060405234801561001057600080fd5b50600436106100ce5760003560e01c806398e36b041161008c578063c46a60a511610066578063c46a60a514610201578063ca0cdea814610231578063f851a44014610266578063f8626af814610284576100ce565b806398e36b0414610193578063998c7684146101b1578063bfd772fc146101cf576100ce565b8062029691146100d35780630527ba8f146101035780632b2aee5d1461012157806346ee2eda1461015157806347381dc11461015b5780636938f43714610177575b600080fd5b6100ed60048036038101906100e891906134de565b6102b6565b6040516100fa9190613624565b60405180910390f35b61010b610578565b6040516101189190613737565b60405180910390f35b61013b60048036038101906101369190613785565b610641565b60405161014891906137c1565b60405180910390f35b610159610680565b005b61017560048036038101906101709190614033565b61080d565b005b610191600480360381019061018c919061410a565b610c59565b005b61019b610e80565b6040516101a891906147b0565b60405180910390f35b6101b9611a36565b6040516101c69190613624565b60405180910390f35b6101e960048036038101906101e49190613785565b611b4b565b6040516101f8939291906147e1565b60405180910390f35b61021b600480360381019061021691906134de565b611bc5565b60405161022891906148b6565b60405180910390f35b61024b600480360381019061024691906134de565b6126ee565b60405161025d96959493929190614af7565b60405180910390f35b61026e613145565b60405161027b91906137c1565b60405180910390f35b61029e60048036038101906102999190613785565b61316b565b6040516102ad93929190614b74565b60405180910390f35b6060600080600090505b600380549050811015610367578373ffffffffffffffffffffffffffffffffffffffff16600382815481106102f8576102f7614bab565b5b906000526020600020906003020160010160009054906101000a900473ffffffffffffffffffffffffffffffffffffffff1673ffffffffffffffffffffffffffffffffffffffff160361035457818061035090614c09565b9250505b808061035f90614c09565b9150506102c0565b5060008167ffffffffffffffff811115610384576103836137f2565b5b6040519080825280602002602001820160405280156103bd57816020015b6103aa6131c5565b8152602001906001900390816103a25790505b5090506000805b60038054905081101561056c578573ffffffffffffffffffffffffffffffffffffffff16600382815481106103fc576103fb614bab565b5b906000526020600020906003020160010160009054906101000a900473ffffffffffffffffffffffffffffffffffffffff1673ffffffffffffffffffffffffffffffffffffffff1603610559576003818154811061045d5761045c614bab565b5b90600052602060002090600302016040518060600160405290816000820160009054906101000a900473ffffffffffffffffffffffffffffffffffffffff1673ffffffffffffffffffffffffffffffffffffffff1673ffffffffffffffffffffffffffffffffffffffff1681526020016001820160009054906101000a900473ffffffffffffffffffffffffffffffffffffffff1673ffffffffffffffffffffffffffffffffffffffff1673ffffffffffffffffffffffffffffffffffffffff16815260200160028201548152505083838151811061053f5761053e614bab565b5b6020026020010181905250818061055590614c09565b9250505b808061056490614c09565b9150506103c4565b50819350505050919050565b60606002805480602002602001604051908101604052809291908181526020016000905b828210156106385783829060005260206000209060030201604051806060016040529081600082015481526020016001820160009054906101000a900473ffffffffffffffffffffffffffffffffffffffff1673ffffffffffffffffffffffffffffffffffffffff1673ffffffffffffffffffffffffffffffffffffffff1681526020016002820154815250508152602001906001019061059c565b50505050905090565b6001818154811061065157600080fd5b906000526020600020016000915054906101000a900473ffffffffffffffffffffffffffffffffffffffff1681565b6000803373ffffffffffffffffffffffffffffffffffffffff1673ffffffffffffffffffffffffffffffffffffffff16815260200190815260200160002060140160009054906101000a900460ff1661070e576040517f08c379a000000000000000000000000000000000000000000000000000000000815260040161070590614cae565b60405180910390fd5b60006002805490509050600260405180606001604052808381526020013373ffffffffffffffffffffffffffffffffffffffff1681526020014281525090806001815401808255809150506001900390600052602060002090600302016000909190919091506000820151816000015560208201518160010160006101000a81548173ffffffffffffffffffffffffffffffffffffffff021916908373ffffffffffffffffffffffffffffffffffffffff1602179055506040820151816002015550507f5c76d8902da3bf211ba4d69670a8d12c5f9a7b66b18b4348c392c4d2fe94a61e8133604051610802929190614cce565b60405180910390a150565b60008060003373ffffffffffffffffffffffffffffffffffffffff1673ffffffffffffffffffffffffffffffffffffffff1681526020019081526020016000209050338160000160006101000a81548173ffffffffffffffffffffffffffffffffffffffff021916908373ffffffffffffffffffffffffffffffffffffffff160217905550848160010160008201518160000190816108ac9190614f03565b5060208201518160010160006101000a81548160ff02191690831515021790555060408201518160010160016101000a81548160ff02191690831515021790555060608201518160010160026101000a81548160ff02191690831515021790555060808201518160010160036101000a81548160ff02191690831515021790555090505083816003016000820151816000015560208201518160010155604082015181600201908161095e9190614f03565b5060608201518160030190816109749190614f03565b509050508181600d01600082015181600001556020820151816001015560408201518160020190816109a69190614f03565b5060608201518160030190816109bc9190614f03565b5060808201518160040190816109d29190614f03565b5060a08201518160050190816109e89190614f03565b5060c08201518160060190816109fe9190614f03565b5090505060005b836060015151811015610aa2578160070160050184606001518281518110610a3057610a2f614bab565b5b602002602001015190806001815401808255809150506001900390600052602060002090600202016000909190919091506000820151816000019081610a769190614f03565b506020820151816001019081610a8c9190614f03565b5050508080610a9a90614c09565b915050610a05565b5082600001518160070160000160008201518160000160006101000a81548160ff02191690831515021790555060208201518160000160016101000a81548160ff02191690831515021790555060408201518160000160026101000a81548160ff0219169083151502179055506060820151816001019080519060200190610b2b929190613212565b5090505082602001518160070160020160008201518160000160006101000a81548160ff0219169083151502179055506020820151816001019080519060200190610b77929190613212565b509050508260400151816007016004019080519060200190610b9a929190613212565b5060018160140160006101000a81548160ff0219169083151502179055506001339080600181540180825580915050600190039060005260206000200160009091909190916101000a81548173ffffffffffffffffffffffffffffffffffffffff021916908373ffffffffffffffffffffffffffffffffffffffff1602179055507fe07c5c81f3582b5a3dd36cadd627347f87083a40463dcc9eaf0d7a819c55dc1433604051610c4a91906137c1565b60405180910390a15050505050565b600073ffffffffffffffffffffffffffffffffffffffff168173ffffffffffffffffffffffffffffffffffffffff1603610cc8576040517f08c379a0000000000000000000000000000000000000000000000000000000008152600401610cbf90615021565b60405180910390fd5b600073ffffffffffffffffffffffffffffffffffffffff168273ffffffffffffffffffffffffffffffffffffffff1603610d37576040517f08c379a0000000000000000000000000000000000000000000000000000000008152600401610d2e9061508d565b60405180910390fd5b600360405180606001604052808473ffffffffffffffffffffffffffffffffffffffff1681526020018373ffffffffffffffffffffffffffffffffffffffff16815260200142815250908060018154018082558091505060019003906000526020600020906003020160009091909190915060008201518160000160006101000a81548173ffffffffffffffffffffffffffffffffffffffff021916908373ffffffffffffffffffffffffffffffffffffffff16021790555060208201518160010160006101000a81548173ffffffffffffffffffffffffffffffffffffffff021916908373ffffffffffffffffffffffffffffffffffffffff1602179055506040820151816002015550507f0e67b387e6b714c8320dc025efba07a317608a5faed6bcfcfa69812f5fbfe9058282604051610e749291906150ad565b60405180910390a15050565b6060600060018054905067ffffffffffffffff811115610ea357610ea26137f2565b5b604051908082528060200260200182016040528015610edc57816020015b610ec961326b565b815260200190600190039081610ec15790505b50905060005b600180549050811015611a2e5760008060018381548110610f0657610f05614bab565b5b9060005260206000200160009054906101000a900473ffffffffffffffffffffffffffffffffffffffff1673ffffffffffffffffffffffffffffffffffffffff1673ffffffffffffffffffffffffffffffffffffffff1681526020019081526020016000206040518060c00160405290816000820160009054906101000a900473ffffffffffffffffffffffffffffffffffffffff1673ffffffffffffffffffffffffffffffffffffffff1673ffffffffffffffffffffffffffffffffffffffff168152602001600182016040518060a0016040529081600082018054610fec90614d26565b80601f016020809104026020016040519081016040528092919081815260200182805461101890614d26565b80156110655780601f1061103a57610100808354040283529160200191611065565b820191906000526020600020905b81548152906001019060200180831161104857829003601f168201915b505050505081526020016001820160009054906101000a900460ff161515151581526020016001820160019054906101000a900460ff161515151581526020016001820160029054906101000a900460ff161515151581526020016001820160039054906101000a900460ff161515151581525050815260200160038201604051806080016040529081600082015481526020016001820154815260200160028201805461111290614d26565b80601f016020809104026020016040519081016040528092919081815260200182805461113e90614d26565b801561118b5780601f106111605761010080835404028352916020019161118b565b820191906000526020600020905b81548152906001019060200180831161116e57829003601f168201915b505050505081526020016003820180546111a490614d26565b80601f01602080910402602001604051908101604052809291908181526020018280546111d090614d26565b801561121d5780601f106111f25761010080835404028352916020019161121d565b820191906000526020600020905b81548152906001019060200180831161120057829003601f168201915b505050505081525050815260200160078201604051806080016040529081600082016040518060800160405290816000820160009054906101000a900460ff161515151581526020016000820160019054906101000a900460ff161515151581526020016000820160029054906101000a900460ff1615151515815260200160018201805480602002602001604051908101604052809291908181526020016000905b8282101561136c5783829060005260206000200180546112df90614d26565b80601f016020809104026020016040519081016040528092919081815260200182805461130b90614d26565b80156113585780601f1061132d57610100808354040283529160200191611358565b820191906000526020600020905b81548152906001019060200180831161133b57829003601f168201915b5050505050815260200190600101906112c0565b50505050815250508152602001600282016040518060400160405290816000820160009054906101000a900460ff1615151515815260200160018201805480602002602001604051908101604052809291908181526020016000905b828210156114745783829060005260206000200180546113e790614d26565b80601f016020809104026020016040519081016040528092919081815260200182805461141390614d26565b80156114605780601f1061143557610100808354040283529160200191611460565b820191906000526020600020905b81548152906001019060200180831161144357829003601f168201915b5050505050815260200190600101906113c8565b5050505081525050815260200160048201805480602002602001604051908101604052809291908181526020016000905b828210156115515783829060005260206000200180546114c490614d26565b80601f01602080910402602001604051908101604052809291908181526020018280546114f090614d26565b801561153d5780601f106115125761010080835404028352916020019161153d565b820191906000526020600020905b81548152906001019060200180831161152057829003601f168201915b5050505050815260200190600101906114a5565b50505050815260200160058201805480602002602001604051908101604052809291908181526020016000905b828210156116d457838290600052602060002090600202016040518060400160405290816000820180546115b190614d26565b80601f01602080910402602001604051908101604052809291908181526020018280546115dd90614d26565b801561162a5780601f106115ff5761010080835404028352916020019161162a565b820191906000526020600020905b81548152906001019060200180831161160d57829003601f168201915b5050505050815260200160018201805461164390614d26565b80601f016020809104026020016040519081016040528092919081815260200182805461166f90614d26565b80156116bc5780601f10611691576101008083540402835291602001916116bc565b820191906000526020600020905b81548152906001019060200180831161169f57829003601f168201915b5050505050815250508152602001906001019061157e565b50505050815250508152602001600d82016040518060e0016040529081600082015481526020016001820154815260200160028201805461171490614d26565b80601f016020809104026020016040519081016040528092919081815260200182805461174090614d26565b801561178d5780601f106117625761010080835404028352916020019161178d565b820191906000526020600020905b81548152906001019060200180831161177057829003601f168201915b505050505081526020016003820180546117a690614d26565b80601f01602080910402602001604051908101604052809291908181526020018280546117d290614d26565b801561181f5780601f106117f45761010080835404028352916020019161181f565b820191906000526020600020905b81548152906001019060200180831161180257829003601f168201915b5050505050815260200160048201805461183890614d26565b80601f016020809104026020016040519081016040528092919081815260200182805461186490614d26565b80156118b15780601f10611886576101008083540402835291602001916118b1565b820191906000526020600020905b81548152906001019060200180831161189457829003601f168201915b505050505081526020016005820180546118ca90614d26565b80601f01602080910402602001604051908101604052809291908181526020018280546118f690614d26565b80156119435780601f1061191857610100808354040283529160200191611943565b820191906000526020600020905b81548152906001019060200180831161192657829003601f168201915b5050505050815260200160068201805461195c90614d26565b80601f016020809104026020016040519081016040528092919081815260200182805461198890614d26565b80156119d55780601f106119aa576101008083540402835291602001916119d5565b820191906000526020600020905b8154815290600101906020018083116119b857829003601f168201915b50505050508152505081526020016014820160009054906101000a900460ff161515151581525050828281518110611a1057611a0f614bab565b5b60200260200101819052508080611a2690614c09565b915050610ee2565b508091505090565b60606003805480602002602001604051908101604052809291908181526020016000905b82821015611b4257838290600052602060002090600302016040518060600160405290816000820160009054906101000a900473ffffffffffffffffffffffffffffffffffffffff1673ffffffffffffffffffffffffffffffffffffffff1673ffffffffffffffffffffffffffffffffffffffff1681526020016001820160009054906101000a900473ffffffffffffffffffffffffffffffffffffffff1673ffffffffffffffffffffffffffffffffffffffff1673ffffffffffffffffffffffffffffffffffffffff16815260200160028201548152505081526020019060010190611a5a565b50505050905090565b60038181548110611b5b57600080fd5b90600052602060002090600302016000915090508060000160009054906101000a900473ffffffffffffffffffffffffffffffffffffffff16908060010160009054906101000a900473ffffffffffffffffffffffffffffffffffffffff16908060020154905083565b611bcd61326b565b60008060008473ffffffffffffffffffffffffffffffffffffffff1673ffffffffffffffffffffffffffffffffffffffff1681526020019081526020016000206040518060c00160405290816000820160009054906101000a900473ffffffffffffffffffffffffffffffffffffffff1673ffffffffffffffffffffffffffffffffffffffff1673ffffffffffffffffffffffffffffffffffffffff168152602001600182016040518060a0016040529081600082018054611c8e90614d26565b80601f0160208091040260200160405190810160405280929190818152602001828054611cba90614d26565b8015611d075780601f10611cdc57610100808354040283529160200191611d07565b820191906000526020600020905b815481529060010190602001808311611cea57829003601f168201915b505050505081526020016001820160009054906101000a900460ff161515151581526020016001820160019054906101000a900460ff161515151581526020016001820160029054906101000a900460ff161515151581526020016001820160039054906101000a900460ff1615151515815250508152602001600382016040518060800160405290816000820154815260200160018201548152602001600282018054611db490614d26565b80601f0160208091040260200160405190810160405280929190818152602001828054611de090614d26565b8015611e2d5780601f10611e0257610100808354040283529160200191611e2d565b820191906000526020600020905b815481529060010190602001808311611e1057829003601f168201915b50505050508152602001600382018054611e4690614d26565b80601f0160208091040260200160405190810160405280929190818152602001828054611e7290614d26565b8015611ebf5780601f10611e9457610100808354040283529160200191611ebf565b820191906000526020600020905b815481529060010190602001808311611ea257829003601f168201915b505050505081525050815260200160078201604051806080016040529081600082016040518060800160405290816000820160009054906101000a900460ff161515151581526020016000820160019054906101000a900460ff161515151581526020016000820160029054906101000a900460ff1615151515815260200160018201805480602002602001604051908101604052809291908181526020016000905b8282101561200e578382906000526020600020018054611f8190614d26565b80601f0160208091040260200160405190810160405280929190818152602001828054611fad90614d26565b8015611ffa5780601f10611fcf57610100808354040283529160200191611ffa565b820191906000526020600020905b815481529060010190602001808311611fdd57829003601f168201915b505050505081526020019060010190611f62565b50505050815250508152602001600282016040518060400160405290816000820160009054906101000a900460ff1615151515815260200160018201805480602002602001604051908101604052809291908181526020016000905b8282101561211657838290600052602060002001805461208990614d26565b80601f01602080910402602001604051908101604052809291908181526020018280546120b590614d26565b80156121025780601f106120d757610100808354040283529160200191612102565b820191906000526020600020905b8154815290600101906020018083116120e557829003601f168201915b50505050508152602001906001019061206a565b5050505081525050815260200160048201805480602002602001604051908101604052809291908181526020016000905b828210156121f357838290600052602060002001805461216690614d26565b80601f016020809104026020016040519081016040528092919081815260200182805461219290614d26565b80156121df5780601f106121b4576101008083540402835291602001916121df565b820191906000526020600020905b8154815290600101906020018083116121c257829003601f168201915b505050505081526020019060010190612147565b50505050815260200160058201805480602002602001604051908101604052809291908181526020016000905b82821015612376578382906000526020600020906002020160405180604001604052908160008201805461225390614d26565b80601f016020809104026020016040519081016040528092919081815260200182805461227f90614d26565b80156122cc5780601f106122a1576101008083540402835291602001916122cc565b820191906000526020600020905b8154815290600101906020018083116122af57829003601f168201915b505050505081526020016001820180546122e590614d26565b80601f016020809104026020016040519081016040528092919081815260200182805461231190614d26565b801561235e5780601f106123335761010080835404028352916020019161235e565b820191906000526020600020905b81548152906001019060200180831161234157829003601f168201915b50505050508152505081526020019060010190612220565b50505050815250508152602001600d82016040518060e001604052908160008201548152602001600182015481526020016002820180546123b690614d26565b80601f01602080910402602001604051908101604052809291908181526020018280546123e290614d26565b801561242f5780601f106124045761010080835404028352916020019161242f565b820191906000526020600020905b81548152906001019060200180831161241257829003601f168201915b5050505050815260200160038201805461244890614d26565b80601f016020809104026020016040519081016040528092919081815260200182805461247490614d26565b80156124c15780601f10612496576101008083540402835291602001916124c1565b820191906000526020600020905b8154815290600101906020018083116124a457829003601f168201915b505050505081526020016004820180546124da90614d26565b80601f016020809104026020016040519081016040528092919081815260200182805461250690614d26565b80156125535780601f1061252857610100808354040283529160200191612553565b820191906000526020600020905b81548152906001019060200180831161253657829003601f168201915b5050505050815260200160058201805461256c90614d26565b80601f016020809104026020016040519081016040528092919081815260200182805461259890614d26565b80156125e55780601f106125ba576101008083540402835291602001916125e5565b820191906000526020600020905b8154815290600101906020018083116125c857829003601f168201915b505050505081526020016006820180546125fe90614d26565b80601f016020809104026020016040519081016040528092919081815260200182805461262a90614d26565b80156126775780601f1061264c57610100808354040283529160200191612677565b820191906000526020600020905b81548152906001019060200180831161265a57829003601f168201915b50505050508152505081526020016014820160009054906101000a900460ff16151515158152505090508060a001516126e5576040517f08c379a00000000000000000000000000000000000000000000000000000000081526004016126dc90615122565b60405180910390fd5b80915050919050565b60006020528060005260406000206000915090508060000160009054906101000a900473ffffffffffffffffffffffffffffffffffffffff1690806001016040518060a001604052908160008201805461274790614d26565b80601f016020809104026020016040519081016040528092919081815260200182805461277390614d26565b80156127c05780601f10612795576101008083540402835291602001916127c0565b820191906000526020600020905b8154815290600101906020018083116127a357829003601f168201915b505050505081526020016001820160009054906101000a900460ff161515151581526020016001820160019054906101000a900460ff161515151581526020016001820160029054906101000a900460ff161515151581526020016001820160039054906101000a900460ff1615151515815250509080600301604051806080016040529081600082015481526020016001820154815260200160028201805461286990614d26565b80601f016020809104026020016040519081016040528092919081815260200182805461289590614d26565b80156128e25780601f106128b7576101008083540402835291602001916128e2565b820191906000526020600020905b8154815290600101906020018083116128c557829003601f168201915b505050505081526020016003820180546128fb90614d26565b80601f016020809104026020016040519081016040528092919081815260200182805461292790614d26565b80156129745780601f1061294957610100808354040283529160200191612974565b820191906000526020600020905b81548152906001019060200180831161295757829003601f168201915b5050505050815250509080600701604051806080016040529081600082016040518060800160405290816000820160009054906101000a900460ff161515151581526020016000820160019054906101000a900460ff161515151581526020016000820160029054906101000a900460ff1615151515815260200160018201805480602002602001604051908101604052809291908181526020016000905b82821015612abf578382906000526020600020018054612a3290614d26565b80601f0160208091040260200160405190810160405280929190818152602001828054612a5e90614d26565b8015612aab5780601f10612a8057610100808354040283529160200191612aab565b820191906000526020600020905b815481529060010190602001808311612a8e57829003601f168201915b505050505081526020019060010190612a13565b50505050815250508152602001600282016040518060400160405290816000820160009054906101000a900460ff1615151515815260200160018201805480602002602001604051908101604052809291908181526020016000905b82821015612bc7578382906000526020600020018054612b3a90614d26565b80601f0160208091040260200160405190810160405280929190818152602001828054612b6690614d26565b8015612bb35780601f10612b8857610100808354040283529160200191612bb3565b820191906000526020600020905b815481529060010190602001808311612b9657829003601f168201915b505050505081526020019060010190612b1b565b5050505081525050815260200160048201805480602002602001604051908101604052809291908181526020016000905b82821015612ca4578382906000526020600020018054612c1790614d26565b80601f0160208091040260200160405190810160405280929190818152602001828054612c4390614d26565b8015612c905780601f10612c6557610100808354040283529160200191612c90565b820191906000526020600020905b815481529060010190602001808311612c7357829003601f168201915b505050505081526020019060010190612bf8565b50505050815260200160058201805480602002602001604051908101604052809291908181526020016000905b82821015612e275783829060005260206000209060020201604051806040016040529081600082018054612d0490614d26565b80601f0160208091040260200160405190810160405280929190818152602001828054612d3090614d26565b8015612d7d5780601f10612d5257610100808354040283529160200191612d7d565b820191906000526020600020905b815481529060010190602001808311612d6057829003601f168201915b50505050508152602001600182018054612d9690614d26565b80601f0160208091040260200160405190810160405280929190818152602001828054612dc290614d26565b8015612e0f5780601f10612de457610100808354040283529160200191612e0f565b820191906000526020600020905b815481529060010190602001808311612df257829003601f168201915b50505050508152505081526020019060010190612cd1565b50505050815250509080600d016040518060e00160405290816000820154815260200160018201548152602001600282018054612e6390614d26565b80601f0160208091040260200160405190810160405280929190818152602001828054612e8f90614d26565b8015612edc5780601f10612eb157610100808354040283529160200191612edc565b820191906000526020600020905b815481529060010190602001808311612ebf57829003601f168201915b50505050508152602001600382018054612ef590614d26565b80601f0160208091040260200160405190810160405280929190818152602001828054612f2190614d26565b8015612f6e5780601f10612f4357610100808354040283529160200191612f6e565b820191906000526020600020905b815481529060010190602001808311612f5157829003601f168201915b50505050508152602001600482018054612f8790614d26565b80601f0160208091040260200160405190810160405280929190818152602001828054612fb390614d26565b80156130005780601f10612fd557610100808354040283529160200191613000565b820191906000526020600020905b815481529060010190602001808311612fe357829003601f168201915b5050505050815260200160058201805461301990614d26565b80601f016020809104026020016040519081016040528092919081815260200182805461304590614d26565b80156130925780601f1061306757610100808354040283529160200191613092565b820191906000526020600020905b81548152906001019060200180831161307557829003601f168201915b505050505081526020016006820180546130ab90614d26565b80601f01602080910402602001604051908101604052809291908181526020018280546130d790614d26565b80156131245780601f106130f957610100808354040283529160200191613124565b820191906000526020600020905b81548152906001019060200180831161310757829003601f168201915b505050505081525050908060140160009054906101000a900460ff16905086565b600460009054906101000a900473ffffffffffffffffffffffffffffffffffffffff1681565b6002818154811061317b57600080fd5b90600052602060002090600302016000915090508060000154908060010160009054906101000a900473ffffffffffffffffffffffffffffffffffffffff16908060020154905083565b6040518060600160405280600073ffffffffffffffffffffffffffffffffffffffff168152602001600073ffffffffffffffffffffffffffffffffffffffff168152602001600081525090565b82805482825590600052602060002090810192821561325a579160200282015b828111156132595782518290816132499190614f03565b5091602001919060010190613232565b5b50905061326791906132d1565b5090565b6040518060c00160405280600073ffffffffffffffffffffffffffffffffffffffff16815260200161329b6132f5565b81526020016132a861332c565b81526020016132b5613354565b81526020016132c2613388565b81526020016000151581525090565b5b808211156132f157600081816132e891906133c5565b506001016132d2565b5090565b6040518060a00160405280606081526020016000151581526020016000151581526020016000151581526020016000151581525090565b6040518060800160405280600081526020016000815260200160608152602001606081525090565b6040518060800160405280613367613405565b8152602001613374613433565b815260200160608152602001606081525090565b6040518060e00160405280600081526020016000815260200160608152602001606081526020016060815260200160608152602001606081525090565b5080546133d190614d26565b6000825580601f106133e35750613402565b601f016020900490600052602060002090810190613401919061344f565b5b50565b6040518060800160405280600015158152602001600015158152602001600015158152602001606081525090565b6040518060400160405280600015158152602001606081525090565b5b80821115613468576000816000905550600101613450565b5090565b6000604051905090565b600080fd5b600080fd5b600073ffffffffffffffffffffffffffffffffffffffff82169050919050565b60006134ab82613480565b9050919050565b6134bb816134a0565b81146134c657600080fd5b50565b6000813590506134d8816134b2565b92915050565b6000602082840312156134f4576134f3613476565b5b6000613502848285016134c9565b91505092915050565b600081519050919050565b600082825260208201905092915050565b6000819050602082019050919050565b613540816134a0565b82525050565b6000819050919050565b61355981613546565b82525050565b6060820160008201516135756000850182613537565b5060208201516135886020850182613537565b50604082015161359b6040850182613550565b50505050565b60006135ad838361355f565b60608301905092915050565b6000602082019050919050565b60006135d18261350b565b6135db8185613516565b93506135e683613527565b8060005b838110156136175781516135fe88826135a1565b9750613609836135b9565b9250506001810190506135ea565b5085935050505092915050565b6000602082019050818103600083015261363e81846135c6565b905092915050565b600081519050919050565b600082825260208201905092915050565b6000819050602082019050919050565b6060820160008201516136886000850182613550565b50602082015161369b6020850182613537565b5060408201516136ae6040850182613550565b50505050565b60006136c08383613672565b60608301905092915050565b6000602082019050919050565b60006136e482613646565b6136ee8185613651565b93506136f983613662565b8060005b8381101561372a57815161371188826136b4565b975061371c836136cc565b9250506001810190506136fd565b5085935050505092915050565b6000602082019050818103600083015261375181846136d9565b905092915050565b61376281613546565b811461376d57600080fd5b50565b60008135905061377f81613759565b92915050565b60006020828403121561379b5761379a613476565b5b60006137a984828501613770565b91505092915050565b6137bb816134a0565b82525050565b60006020820190506137d660008301846137b2565b92915050565b600080fd5b6000601f19601f8301169050919050565b7f4e487b7100000000000000000000000000000000000000000000000000000000600052604160045260246000fd5b61382a826137e1565b810181811067ffffffffffffffff82111715613849576138486137f2565b5b80604052505050565b600061385c61346c565b90506138688282613821565b919050565b600080fd5b600080fd5b600080fd5b600067ffffffffffffffff821115613897576138966137f2565b5b6138a0826137e1565b9050602081019050919050565b82818337600083830152505050565b60006138cf6138ca8461387c565b613852565b9050828152602081018484840111156138eb576138ea613877565b5b6138f68482856138ad565b509392505050565b600082601f83011261391357613912613872565b5b81356139238482602086016138bc565b91505092915050565b60008115159050919050565b6139418161392c565b811461394c57600080fd5b50565b60008135905061395e81613938565b92915050565b600060a0828403121561397a576139796137dc565b5b61398460a0613852565b9050600082013567ffffffffffffffff8111156139a4576139a361386d565b5b6139b0848285016138fe565b60008301525060206139c48482850161394f565b60208301525060406139d88482850161394f565b60408301525060606139ec8482850161394f565b6060830152506080613a008482850161394f565b60808301525092915050565b600060808284031215613a2257613a216137dc565b5b613a2c6080613852565b90506000613a3c84828501613770565b6000830152506020613a5084828501613770565b602083015250604082013567ffffffffffffffff811115613a7457613a7361386d565b5b613a80848285016138fe565b604083015250606082013567ffffffffffffffff811115613aa457613aa361386d565b5b613ab0848285016138fe565b60608301525092915050565b600067ffffffffffffffff821115613ad757613ad66137f2565b5b602082029050602081019050919050565b600080fd5b6000613b00613afb84613abc565b613852565b90508083825260208201905060208402830185811115613b2357613b22613ae8565b5b835b81811015613b6a57803567ffffffffffffffff811115613b4857613b47613872565b5b808601613b5589826138fe565b85526020850194505050602081019050613b25565b5050509392505050565b600082601f830112613b8957613b88613872565b5b8135613b99848260208601613aed565b91505092915050565b600060808284031215613bb857613bb76137dc565b5b613bc26080613852565b90506000613bd28482850161394f565b6000830152506020613be68482850161394f565b6020830152506040613bfa8482850161394f565b604083015250606082013567ffffffffffffffff811115613c1e57613c1d61386d565b5b613c2a84828501613b74565b60608301525092915050565b600060408284031215613c4c57613c4b6137dc565b5b613c566040613852565b90506000613c668482850161394f565b600083015250602082013567ffffffffffffffff811115613c8a57613c8961386d565b5b613c9684828501613b74565b60208301525092915050565b600067ffffffffffffffff821115613cbd57613cbc6137f2565b5b602082029050602081019050919050565b600060408284031215613ce457613ce36137dc565b5b613cee6040613852565b9050600082013567ffffffffffffffff811115613d0e57613d0d61386d565b5b613d1a848285016138fe565b600083015250602082013567ffffffffffffffff811115613d3e57613d3d61386d565b5b613d4a848285016138fe565b60208301525092915050565b6000613d69613d6484613ca2565b613852565b90508083825260208201905060208402830185811115613d8c57613d8b613ae8565b5b835b81811015613dd357803567ffffffffffffffff811115613db157613db0613872565b5b808601613dbe8982613cce565b85526020850194505050602081019050613d8e565b5050509392505050565b600082601f830112613df257613df1613872565b5b8135613e02848260208601613d56565b91505092915050565b600060808284031215613e2157613e206137dc565b5b613e2b6080613852565b9050600082013567ffffffffffffffff811115613e4b57613e4a61386d565b5b613e5784828501613ba2565b600083015250602082013567ffffffffffffffff811115613e7b57613e7a61386d565b5b613e8784828501613c36565b602083015250604082013567ffffffffffffffff811115613eab57613eaa61386d565b5b613eb784828501613b74565b604083015250606082013567ffffffffffffffff811115613edb57613eda61386d565b5b613ee784828501613ddd565b60608301525092915050565b600060e08284031215613f0957613f086137dc565b5b613f1360e0613852565b90506000613f2384828501613770565b6000830152506020613f3784828501613770565b602083015250604082013567ffffffffffffffff811115613f5b57613f5a61386d565b5b613f67848285016138fe565b604083015250606082013567ffffffffffffffff811115613f8b57613f8a61386d565b5b613f97848285016138fe565b606083015250608082013567ffffffffffffffff811115613fbb57613fba61386d565b5b613fc7848285016138fe565b60808301525060a082013567ffffffffffffffff811115613feb57613fea61386d565b5b613ff7848285016138fe565b60a08301525060c082013567ffffffffffffffff81111561401b5761401a61386d565b5b614027848285016138fe565b60c08301525092915050565b6000806000806080858703121561404d5761404c613476565b5b600085013567ffffffffffffffff81111561406b5761406a61347b565b5b61407787828801613964565b945050602085013567ffffffffffffffff8111156140985761409761347b565b5b6140a487828801613a0c565b935050604085013567ffffffffffffffff8111156140c5576140c461347b565b5b6140d187828801613e0b565b925050606085013567ffffffffffffffff8111156140f2576140f161347b565b5b6140fe87828801613ef3565b91505092959194509250565b6000806040838503121561412157614120613476565b5b600061412f858286016134c9565b9250506020614140858286016134c9565b9150509250929050565b600081519050919050565b600082825260208201905092915050565b6000819050602082019050919050565b600081519050919050565b600082825260208201905092915050565b60005b838110156141b0578082015181840152602081019050614195565b60008484015250505050565b60006141c782614176565b6141d18185614181565b93506141e1818560208601614192565b6141ea816137e1565b840191505092915050565b6141fe8161392c565b82525050565b600060a083016000830151848203600086015261422182826141bc565b915050602083015161423660208601826141f5565b50604083015161424960408601826141f5565b50606083015161425c60608601826141f5565b50608083015161426f60808601826141f5565b508091505092915050565b60006080830160008301516142926000860182613550565b5060208301516142a56020860182613550565b50604083015184820360408601526142bd82826141bc565b915050606083015184820360608601526142d782826141bc565b9150508091505092915050565b600081519050919050565b600082825260208201905092915050565b6000819050602082019050919050565b600061431c83836141bc565b905092915050565b6000602082019050919050565b600061433c826142e4565b61434681856142ef565b93508360208202850161435885614300565b8060005b8581101561439457848403895281516143758582614310565b945061438083614324565b925060208a0199505060018101905061435c565b50829750879550505050505092915050565b60006080830160008301516143be60008601826141f5565b5060208301516143d160208601826141f5565b5060408301516143e460408601826141f5565b50606083015184820360608601526143fc8282614331565b9150508091505092915050565b600060408301600083015161442160008601826141f5565b50602083015184820360208601526144398282614331565b9150508091505092915050565b600081519050919050565b600082825260208201905092915050565b6000819050602082019050919050565b6000604083016000830151848203600086015261448f82826141bc565b915050602083015184820360208601526144a982826141bc565b9150508091505092915050565b60006144c28383614472565b905092915050565b6000602082019050919050565b60006144e282614446565b6144ec8185614451565b9350836020820285016144fe85614462565b8060005b8581101561453a578484038952815161451b85826144b6565b9450614526836144ca565b925060208a01995050600181019050614502565b50829750879550505050505092915050565b6000608083016000830151848203600086015261456982826143a6565b915050602083015184820360208601526145838282614409565b9150506040830151848203604086015261459d8282614331565b915050606083015184820360608601526145b782826144d7565b9150508091505092915050565b600060e0830160008301516145dc6000860182613550565b5060208301516145ef6020860182613550565b506040830151848203604086015261460782826141bc565b9150506060830151848203606086015261462182826141bc565b9150506080830151848203608086015261463b82826141bc565b91505060a083015184820360a086015261465582826141bc565b91505060c083015184820360c086015261466f82826141bc565b9150508091505092915050565b600060c0830160008301516146946000860182613537565b50602083015184820360208601526146ac8282614204565b915050604083015184820360408601526146c6828261427a565b915050606083015184820360608601526146e0828261454c565b915050608083015184820360808601526146fa82826145c4565b91505060a083015161470f60a08601826141f5565b508091505092915050565b6000614726838361467c565b905092915050565b6000602082019050919050565b60006147468261414a565b6147508185614155565b93508360208202850161476285614166565b8060005b8581101561479e578484038952815161477f858261471a565b945061478a8361472e565b925060208a01995050600181019050614766565b50829750879550505050505092915050565b600060208201905081810360008301526147ca818461473b565b905092915050565b6147db81613546565b82525050565b60006060820190506147f660008301866137b2565b61480360208301856137b2565b61481060408301846147d2565b949350505050565b600060c0830160008301516148306000860182613537565b50602083015184820360208601526148488282614204565b91505060408301518482036040860152614862828261427a565b9150506060830151848203606086015261487c828261454c565b9150506080830151848203608086015261489682826145c4565b91505060a08301516148ab60a08601826141f5565b508091505092915050565b600060208201905081810360008301526148d08184614818565b905092915050565b600060a08301600083015184820360008601526148f582826141bc565b915050602083015161490a60208601826141f5565b50604083015161491d60408601826141f5565b50606083015161493060608601826141f5565b50608083015161494360808601826141f5565b508091505092915050565b60006080830160008301516149666000860182613550565b5060208301516149796020860182613550565b506040830151848203604086015261499182826141bc565b915050606083015184820360608601526149ab82826141bc565b9150508091505092915050565b600060808301600083015184820360008601526149d582826143a6565b915050602083015184820360208601526149ef8282614409565b91505060408301518482036040860152614a098282614331565b91505060608301518482036060860152614a2382826144d7565b9150508091505092915050565b600060e083016000830151614a486000860182613550565b506020830151614a5b6020860182613550565b5060408301518482036040860152614a7382826141bc565b91505060608301518482036060860152614a8d82826141bc565b91505060808301518482036080860152614aa782826141bc565b91505060a083015184820360a0860152614ac182826141bc565b91505060c083015184820360c0860152614adb82826141bc565b9150508091505092915050565b614af18161392c565b82525050565b600060c082019050614b0c60008301896137b2565b8181036020830152614b1e81886148d8565b90508181036040830152614b32818761494e565b90508181036060830152614b4681866149b8565b90508181036080830152614b5a8185614a30565b9050614b6960a0830184614ae8565b979650505050505050565b6000606082019050614b8960008301866147d2565b614b9660208301856137b2565b614ba360408301846147d2565b949350505050565b7f4e487b7100000000000000000000000000000000000000000000000000000000600052603260045260246000fd5b7f4e487b7100000000000000000000000000000000000000000000000000000000600052601160045260246000fd5b6000614c1482613546565b91507fffffffffffffffffffffffffffffffffffffffffffffffffffffffffffffffff8203614c4657614c45614bda565b5b600182019050919050565b600082825260208201905092915050565b7f446f6e6f72206973206e6f7420726567697374657265642e0000000000000000600082015250565b6000614c98601883614c51565b9150614ca382614c62565b602082019050919050565b60006020820190508181036000830152614cc781614c8b565b9050919050565b6000604082019050614ce360008301856147d2565b614cf060208301846137b2565b9392505050565b7f4e487b7100000000000000000000000000000000000000000000000000000000600052602260045260246000fd5b60006002820490506001821680614d3e57607f821691505b602082108103614d5157614d50614cf7565b5b50919050565b60008190508160005260206000209050919050565b60006020601f8301049050919050565b600082821b905092915050565b600060088302614db97fffffffffffffffffffffffffffffffffffffffffffffffffffffffffffffffff82614d7c565b614dc38683614d7c565b95508019841693508086168417925050509392505050565b6000819050919050565b6000614e00614dfb614df684613546565b614ddb565b613546565b9050919050565b6000819050919050565b614e1a83614de5565b614e2e614e2682614e07565b848454614d89565b825550505050565b600090565b614e43614e36565b614e4e818484614e11565b505050565b5b81811015614e7257614e67600082614e3b565b600181019050614e54565b5050565b601f821115614eb757614e8881614d57565b614e9184614d6c565b81016020851015614ea0578190505b614eb4614eac85614d6c565b830182614e53565b50505b505050565b600082821c905092915050565b6000614eda60001984600802614ebc565b1980831691505092915050565b6000614ef38383614ec9565b9150826002028217905092915050565b614f0c82614176565b67ffffffffffffffff811115614f2557614f246137f2565b5b614f2f8254614d26565b614f3a828285614e76565b600060209050601f831160018114614f6d5760008415614f5b578287015190505b614f658582614ee7565b865550614fcd565b601f198416614f7b86614d57565b60005b82811015614fa357848901518255600182019150602085019450602081019050614f7e565b86831015614fc05784890151614fbc601f891682614ec9565b8355505b6001600288020188555050505b505050505050565b7f446f6e6f7220616464726573732063616e6e6f74206265207a65726f2e000000600082015250565b600061500b601d83614c51565b915061501682614fd5565b602082019050919050565b6000602082019050818103600083015261503a81614ffe565b9050919050565b7f526563656976657220616464726573732063616e6e6f74206265207a65726f2e600082015250565b6000615077602083614c51565b915061508282615041565b602082019050919050565b600060208201905081810360008301526150a68161506a565b9050919050565b60006040820190506150c260008301856137b2565b6150cf60208301846137b2565b9392505050565b7f446f6e6f72206e6f7420726567697374657265642e0000000000000000000000600082015250565b600061510c601583614c51565b9150615117826150d6565b602082019050919050565b6000602082019050818103600083015261513b816150ff565b905091905056fea264697066735822122006b4bea761bdf5b6b167d8f46052b6cd8621d13a5054ca22ff6d736e4441031364736f6c63430008130033",
  "linkReferences": {},
  "deployedLinkReferences": {}
}