{
  "_format": "hh-sol-artifact-1",
  "contractName": "SpermBank",
  "sourceName": "contracts/SpermBank.sol",
  "abi": [
    {
      "inputs": [],
      "stateMutability": "nonpayable",
      "type": "constructor"
    },
    {
      "anonymous": false,
      "inputs": [
        {
          "indexed": false,
          "internalType": "address",
          "name": "donorAddress",
          "type": "address"
        },
        {
          "indexed": false,
          "internalType": "string",
          "name": "name",
          "type": "string"
        }
      ],
      "name": "DonorRegistered",
      "type": "event"
    },
    {
      "inputs": [],
      "name": "admin",
      "outputs": [
        {
          "internalType": "address",
          "name": "",
          "type": "address"
        }
      ],
      "stateMutability": "view",
      "type": "function"
    },
    {
      "inputs": [
        {
          "internalType": "address",
          "name": "",
          "type": "address"
        }
      ],
      "name": "donors",
      "outputs": [
        {
          "internalType": "address",
          "name": "donorAddress",
          "type": "address"
        },
        {
          "internalType": "string",
          "name": "name",
          "type": "string"
        },
        {
          "internalType": "uint256",
          "name": "age",
          "type": "uint256"
        },
        {
          "components": [
            {
              "internalType": "string",
              "name": "bloodType",
              "type": "string"
            },
            {
              "internalType": "bool",
              "name": "hav",
              "type": "bool"
            },
            {
              "internalType": "bool",
              "name": "hbv",
              "type": "bool"
            },
            {
              "internalType": "bool",
              "name": "hcv",
              "type": "bool"
            },
            {
              "internalType": "bool",
              "name": "venerealDisease",
              "type": "bool"
            }
          ],
          "internalType": "struct SpermBank.BloodInfo",
          "name": "bloodInfo",
          "type": "tuple"
        },
        {
          "components": [
            {
              "internalType": "uint256",
              "name": "semenVolume",
              "type": "uint256"
            },
            {
              "internalType": "uint256",
              "name": "spermCount",
              "type": "uint256"
            },
            {
              "internalType": "string",
              "name": "spermMotility",
              "type": "string"
            },
            {
              "internalType": "string",
              "name": "spermShape",
              "type": "string"
            }
          ],
          "internalType": "struct SpermBank.SemenTestInfo",
          "name": "semenTestInfo",
          "type": "tuple"
        },
        {
          "components": [
            {
              "components": [
                {
                  "internalType": "bool",
                  "name": "mentalRetardation",
                  "type": "bool"
                },
                {
                  "internalType": "bool",
                  "name": "mentalIllness",
                  "type": "bool"
                },
                {
                  "internalType": "bool",
                  "name": "epilepsy",
                  "type": "bool"
                },
                {
                  "internalType": "string[]",
                  "name": "otherConditions",
                  "type": "string[]"
                }
              ],
              "internalType": "struct SpermBank.MedicalHistory",
              "name": "medicalHistory",
              "type": "tuple"
            },
            {
              "components": [
                {
                  "internalType": "bool",
                  "name": "drugUse",
                  "type": "bool"
                },
                {
                  "internalType": "string[]",
                  "name": "otherConditions",
                  "type": "string[]"
                }
              ],
              "internalType": "struct SpermBank.PastHistory",
              "name": "pastHistory",
              "type": "tuple"
            },
            {
              "internalType": "string[]",
              "name": "geneticDisorders",
              "type": "string[]"
            },
            {
              "components": [
                {
                  "internalType": "string",
                  "name": "relation",
                  "type": "string"
                },
                {
                  "internalType": "string",
                  "name": "condition",
                  "type": "string"
                }
              ],
              "internalType": "struct SpermBank.FamilyHistory[]",
              "name": "familyHistory",
              "type": "tuple[]"
            }
          ],
          "internalType": "struct SpermBank.InterviewInfo",
          "name": "interviewInfo",
          "type": "tuple"
        },
        {
          "components": [
            {
              "internalType": "uint256",
              "name": "height",
              "type": "uint256"
            },
            {
              "internalType": "uint256",
              "name": "weight",
              "type": "uint256"
            },
            {
              "internalType": "string",
              "name": "bodyType",
              "type": "string"
            },
            {
              "internalType": "string",
              "name": "ethnicity",
              "type": "string"
            },
            {
              "internalType": "string",
              "name": "personality",
              "type": "string"
            },
            {
              "internalType": "string",
              "name": "education",
              "type": "string"
            },
            {
              "internalType": "string",
              "name": "religion",
              "type": "string"
            }
          ],
          "internalType": "struct SpermBank.PhysicalInfo",
          "name": "physicalInfo",
          "type": "tuple"
        },
        {
          "internalType": "bool",
          "name": "isRegistered",
          "type": "bool"
        }
      ],
      "stateMutability": "view",
      "type": "function"
    },
    {
      "inputs": [
        {
          "internalType": "address",
          "name": "_donorAddress",
          "type": "address"
        }
      ],
      "name": "getDonorInfo",
      "outputs": [
        {
          "components": [
            {
              "internalType": "address",
              "name": "donorAddress",
              "type": "address"
            },
            {
              "internalType": "string",
              "name": "name",
              "type": "string"
            },
            {
              "internalType": "uint256",
              "name": "age",
              "type": "uint256"
            },
            {
              "components": [
                {
                  "internalType": "string",
                  "name": "bloodType",
                  "type": "string"
                },
                {
                  "internalType": "bool",
                  "name": "hav",
                  "type": "bool"
                },
                {
                  "internalType": "bool",
                  "name": "hbv",
                  "type": "bool"
                },
                {
                  "internalType": "bool",
                  "name": "hcv",
                  "type": "bool"
                },
                {
                  "internalType": "bool",
                  "name": "venerealDisease",
                  "type": "bool"
                }
              ],
              "internalType": "struct SpermBank.BloodInfo",
              "name": "bloodInfo",
              "type": "tuple"
            },
            {
              "components": [
                {
                  "internalType": "uint256",
                  "name": "semenVolume",
                  "type": "uint256"
                },
                {
                  "internalType": "uint256",
                  "name": "spermCount",
                  "type": "uint256"
                },
                {
                  "internalType": "string",
                  "name": "spermMotility",
                  "type": "string"
                },
                {
                  "internalType": "string",
                  "name": "spermShape",
                  "type": "string"
                }
              ],
              "internalType": "struct SpermBank.SemenTestInfo",
              "name": "semenTestInfo",
              "type": "tuple"
            },
            {
              "components": [
                {
                  "components": [
                    {
                      "internalType": "bool",
                      "name": "mentalRetardation",
                      "type": "bool"
                    },
                    {
                      "internalType": "bool",
                      "name": "mentalIllness",
                      "type": "bool"
                    },
                    {
                      "internalType": "bool",
                      "name": "epilepsy",
                      "type": "bool"
                    },
                    {
                      "internalType": "string[]",
                      "name": "otherConditions",
                      "type": "string[]"
                    }
                  ],
                  "internalType": "struct SpermBank.MedicalHistory",
                  "name": "medicalHistory",
                  "type": "tuple"
                },
                {
                  "components": [
                    {
                      "internalType": "bool",
                      "name": "drugUse",
                      "type": "bool"
                    },
                    {
                      "internalType": "string[]",
                      "name": "otherConditions",
                      "type": "string[]"
                    }
                  ],
                  "internalType": "struct SpermBank.PastHistory",
                  "name": "pastHistory",
                  "type": "tuple"
                },
                {
                  "internalType": "string[]",
                  "name": "geneticDisorders",
                  "type": "string[]"
                },
                {
                  "components": [
                    {
                      "internalType": "string",
                      "name": "relation",
                      "type": "string"
                    },
                    {
                      "internalType": "string",
                      "name": "condition",
                      "type": "string"
                    }
                  ],
                  "internalType": "struct SpermBank.FamilyHistory[]",
                  "name": "familyHistory",
                  "type": "tuple[]"
                }
              ],
              "internalType": "struct SpermBank.InterviewInfo",
              "name": "interviewInfo",
              "type": "tuple"
            },
            {
              "components": [
                {
                  "internalType": "uint256",
                  "name": "height",
                  "type": "uint256"
                },
                {
                  "internalType": "uint256",
                  "name": "weight",
                  "type": "uint256"
                },
                {
                  "internalType": "string",
                  "name": "bodyType",
                  "type": "string"
                },
                {
                  "internalType": "string",
                  "name": "ethnicity",
                  "type": "string"
                },
                {
                  "internalType": "string",
                  "name": "personality",
                  "type": "string"
                },
                {
                  "internalType": "string",
                  "name": "education",
                  "type": "string"
                },
                {
                  "internalType": "string",
                  "name": "religion",
                  "type": "string"
                }
              ],
              "internalType": "struct SpermBank.PhysicalInfo",
              "name": "physicalInfo",
              "type": "tuple"
            },
            {
              "internalType": "bool",
              "name": "isRegistered",
              "type": "bool"
            }
          ],
          "internalType": "struct SpermBank.Donor",
          "name": "",
          "type": "tuple"
        }
      ],
      "stateMutability": "view",
      "type": "function"
    },
    {
      "inputs": [
        {
          "internalType": "string",
          "name": "_name",
          "type": "string"
        },
        {
          "internalType": "uint256",
          "name": "_age",
          "type": "uint256"
        },
        {
          "components": [
            {
              "internalType": "string",
              "name": "bloodType",
              "type": "string"
            },
            {
              "internalType": "bool",
              "name": "hav",
              "type": "bool"
            },
            {
              "internalType": "bool",
              "name": "hbv",
              "type": "bool"
            },
            {
              "internalType": "bool",
              "name": "hcv",
              "type": "bool"
            },
            {
              "internalType": "bool",
              "name": "venerealDisease",
              "type": "bool"
            }
          ],
          "internalType": "struct SpermBank.BloodInfo",
          "name": "_bloodInfo",
          "type": "tuple"
        },
        {
          "components": [
            {
              "internalType": "uint256",
              "name": "semenVolume",
              "type": "uint256"
            },
            {
              "internalType": "uint256",
              "name": "spermCount",
              "type": "uint256"
            },
            {
              "internalType": "string",
              "name": "spermMotility",
              "type": "string"
            },
            {
              "internalType": "string",
              "name": "spermShape",
              "type": "string"
            }
          ],
          "internalType": "struct SpermBank.SemenTestInfo",
          "name": "_semenTestInfo",
          "type": "tuple"
        },
        {
          "components": [
            {
              "components": [
                {
                  "internalType": "bool",
                  "name": "mentalRetardation",
                  "type": "bool"
                },
                {
                  "internalType": "bool",
                  "name": "mentalIllness",
                  "type": "bool"
                },
                {
                  "internalType": "bool",
                  "name": "epilepsy",
                  "type": "bool"
                },
                {
                  "internalType": "string[]",
                  "name": "otherConditions",
                  "type": "string[]"
                }
              ],
              "internalType": "struct SpermBank.MedicalHistory",
              "name": "medicalHistory",
              "type": "tuple"
            },
            {
              "components": [
                {
                  "internalType": "bool",
                  "name": "drugUse",
                  "type": "bool"
                },
                {
                  "internalType": "string[]",
                  "name": "otherConditions",
                  "type": "string[]"
                }
              ],
              "internalType": "struct SpermBank.PastHistory",
              "name": "pastHistory",
              "type": "tuple"
            },
            {
              "internalType": "string[]",
              "name": "geneticDisorders",
              "type": "string[]"
            },
            {
              "components": [
                {
                  "internalType": "string",
                  "name": "relation",
                  "type": "string"
                },
                {
                  "internalType": "string",
                  "name": "condition",
                  "type": "string"
                }
              ],
              "internalType": "struct SpermBank.FamilyHistory[]",
              "name": "familyHistory",
              "type": "tuple[]"
            }
          ],
          "internalType": "struct SpermBank.InterviewInfo",
          "name": "_interviewInfo",
          "type": "tuple"
        },
        {
          "components": [
            {
              "internalType": "uint256",
              "name": "height",
              "type": "uint256"
            },
            {
              "internalType": "uint256",
              "name": "weight",
              "type": "uint256"
            },
            {
              "internalType": "string",
              "name": "bodyType",
              "type": "string"
            },
            {
              "internalType": "string",
              "name": "ethnicity",
              "type": "string"
            },
            {
              "internalType": "string",
              "name": "personality",
              "type": "string"
            },
            {
              "internalType": "string",
              "name": "education",
              "type": "string"
            },
            {
              "internalType": "string",
              "name": "religion",
              "type": "string"
            }
          ],
          "internalType": "struct SpermBank.PhysicalInfo",
          "name": "_physicalInfo",
          "type": "tuple"
        }
      ],
      "name": "registerDonor",
      "outputs": [],
      "stateMutability": "nonpayable",
      "type": "function"
    }
  ],
  "bytecode": "0x608060405234801561001057600080fd5b5033600160006101000a81548173ffffffffffffffffffffffffffffffffffffffff021916908373ffffffffffffffffffffffffffffffffffffffff16021790555061391d806100616000396000f3fe608060405234801561001057600080fd5b506004361061004c5760003560e01c80631bfaf98314610051578063c46a60a51461006d578063ca0cdea81461009d578063f851a440146100d4575b600080fd5b61006b6004803603810190610066919061283e565b6100f2565b005b610087600480360381019061008291906129b5565b6105cd565b6040516100949190612fd2565b60405180910390f35b6100b760048036038101906100b291906129b5565b611223565b6040516100cb98979695949392919061327b565b60405180910390f35b6100dc611d0e565b6040516100e9919061331c565b60405180910390f35b6000803373ffffffffffffffffffffffffffffffffffffffff1673ffffffffffffffffffffffffffffffffffffffff16815260200190815260200160002060160160009054906101000a900460ff1615610181576040517f08c379a000000000000000000000000000000000000000000000000000000000815260040161017890613383565b60405180910390fd5b60128510156101c5576040517f08c379a00000000000000000000000000000000000000000000000000000000081526004016101bc90613415565b60405180910390fd5b60008060003373ffffffffffffffffffffffffffffffffffffffff1673ffffffffffffffffffffffffffffffffffffffff1681526020019081526020016000209050338160000160006101000a81548173ffffffffffffffffffffffffffffffffffffffff021916908373ffffffffffffffffffffffffffffffffffffffff1602179055508681600101908161025b9190613641565b508581600201819055508481600301600082015181600001908161027f9190613641565b5060208201518160010160006101000a81548160ff02191690831515021790555060408201518160010160016101000a81548160ff02191690831515021790555060608201518160010160026101000a81548160ff02191690831515021790555060808201518160010160036101000a81548160ff0219169083151502179055509050508381600501600082015181600001556020820151816001015560408201518160020190816103319190613641565b5060608201518160030190816103479190613641565b509050508181600f01600082015181600001556020820151816001015560408201518160020190816103799190613641565b50606082015181600301908161038f9190613641565b5060808201518160040190816103a59190613641565b5060a08201518160050190816103bb9190613641565b5060c08201518160060190816103d19190613641565b5090505060005b83606001515181101561047557816009016005018460600151828151811061040357610402613713565b5b6020026020010151908060018154018082558091505060019003906000526020600020906002020160009091909190915060008201518160000190816104499190613641565b50602082015181600101908161045f9190613641565b505050808061046d90613771565b9150506103d8565b5082600001518160090160000160008201518160000160006101000a81548160ff02191690831515021790555060208201518160000160016101000a81548160ff02191690831515021790555060408201518160000160026101000a81548160ff02191690831515021790555060608201518160010190805190602001906104fe929190611d34565b5090505082602001518160090160020160008201518160000160006101000a81548160ff021916908315150217905550602082015181600101908051906020019061054a929190611d34565b50905050826040015181600901600401908051906020019061056d929190611d34565b5060018160160160006101000a81548160ff0219169083151502179055507ff6bba8a2d47514955cc8e64ea9127b51d5615832d1fbd20ec40275f0876cfcbf33886040516105bc9291906137b9565b60405180910390a150505050505050565b6105d5611d8d565b600160009054906101000a900473ffffffffffffffffffffffffffffffffffffffff1673ffffffffffffffffffffffffffffffffffffffff163373ffffffffffffffffffffffffffffffffffffffff1614610665576040517f08c379a000000000000000000000000000000000000000000000000000000000815260040161065c9061385b565b60405180910390fd5b60008060008473ffffffffffffffffffffffffffffffffffffffff1673ffffffffffffffffffffffffffffffffffffffff168152602001908152602001600020604051806101000160405290816000820160009054906101000a900473ffffffffffffffffffffffffffffffffffffffff1673ffffffffffffffffffffffffffffffffffffffff1673ffffffffffffffffffffffffffffffffffffffff16815260200160018201805461071790613464565b80601f016020809104026020016040519081016040528092919081815260200182805461074390613464565b80156107905780601f1061076557610100808354040283529160200191610790565b820191906000526020600020905b81548152906001019060200180831161077357829003601f168201915b5050505050815260200160028201548152602001600382016040518060a00160405290816000820180546107c390613464565b80601f01602080910402602001604051908101604052809291908181526020018280546107ef90613464565b801561083c5780601f106108115761010080835404028352916020019161083c565b820191906000526020600020905b81548152906001019060200180831161081f57829003601f168201915b505050505081526020016001820160009054906101000a900460ff161515151581526020016001820160019054906101000a900460ff161515151581526020016001820160029054906101000a900460ff161515151581526020016001820160039054906101000a900460ff16151515158152505081526020016005820160405180608001604052908160008201548152602001600182015481526020016002820180546108e990613464565b80601f016020809104026020016040519081016040528092919081815260200182805461091590613464565b80156109625780601f1061093757610100808354040283529160200191610962565b820191906000526020600020905b81548152906001019060200180831161094557829003601f168201915b5050505050815260200160038201805461097b90613464565b80601f01602080910402602001604051908101604052809291908181526020018280546109a790613464565b80156109f45780601f106109c9576101008083540402835291602001916109f4565b820191906000526020600020905b8154815290600101906020018083116109d757829003601f168201915b505050505081525050815260200160098201604051806080016040529081600082016040518060800160405290816000820160009054906101000a900460ff161515151581526020016000820160019054906101000a900460ff161515151581526020016000820160029054906101000a900460ff1615151515815260200160018201805480602002602001604051908101604052809291908181526020016000905b82821015610b43578382906000526020600020018054610ab690613464565b80601f0160208091040260200160405190810160405280929190818152602001828054610ae290613464565b8015610b2f5780601f10610b0457610100808354040283529160200191610b2f565b820191906000526020600020905b815481529060010190602001808311610b1257829003601f168201915b505050505081526020019060010190610a97565b50505050815250508152602001600282016040518060400160405290816000820160009054906101000a900460ff1615151515815260200160018201805480602002602001604051908101604052809291908181526020016000905b82821015610c4b578382906000526020600020018054610bbe90613464565b80601f0160208091040260200160405190810160405280929190818152602001828054610bea90613464565b8015610c375780601f10610c0c57610100808354040283529160200191610c37565b820191906000526020600020905b815481529060010190602001808311610c1a57829003601f168201915b505050505081526020019060010190610b9f565b5050505081525050815260200160048201805480602002602001604051908101604052809291908181526020016000905b82821015610d28578382906000526020600020018054610c9b90613464565b80601f0160208091040260200160405190810160405280929190818152602001828054610cc790613464565b8015610d145780601f10610ce957610100808354040283529160200191610d14565b820191906000526020600020905b815481529060010190602001808311610cf757829003601f168201915b505050505081526020019060010190610c7c565b50505050815260200160058201805480602002602001604051908101604052809291908181526020016000905b82821015610eab5783829060005260206000209060020201604051806040016040529081600082018054610d8890613464565b80601f0160208091040260200160405190810160405280929190818152602001828054610db490613464565b8015610e015780601f10610dd657610100808354040283529160200191610e01565b820191906000526020600020905b815481529060010190602001808311610de457829003601f168201915b50505050508152602001600182018054610e1a90613464565b80601f0160208091040260200160405190810160405280929190818152602001828054610e4690613464565b8015610e935780601f10610e6857610100808354040283529160200191610e93565b820191906000526020600020905b815481529060010190602001808311610e7657829003601f168201915b50505050508152505081526020019060010190610d55565b50505050815250508152602001600f82016040518060e00160405290816000820154815260200160018201548152602001600282018054610eeb90613464565b80601f0160208091040260200160405190810160405280929190818152602001828054610f1790613464565b8015610f645780601f10610f3957610100808354040283529160200191610f64565b820191906000526020600020905b815481529060010190602001808311610f4757829003601f168201915b50505050508152602001600382018054610f7d90613464565b80601f0160208091040260200160405190810160405280929190818152602001828054610fa990613464565b8015610ff65780601f10610fcb57610100808354040283529160200191610ff6565b820191906000526020600020905b815481529060010190602001808311610fd957829003601f168201915b5050505050815260200160048201805461100f90613464565b80601f016020809104026020016040519081016040528092919081815260200182805461103b90613464565b80156110885780601f1061105d57610100808354040283529160200191611088565b820191906000526020600020905b81548152906001019060200180831161106b57829003601f168201915b505050505081526020016005820180546110a190613464565b80601f01602080910402602001604051908101604052809291908181526020018280546110cd90613464565b801561111a5780601f106110ef5761010080835404028352916020019161111a565b820191906000526020600020905b8154815290600101906020018083116110fd57829003601f168201915b5050505050815260200160068201805461113390613464565b80601f016020809104026020016040519081016040528092919081815260200182805461115f90613464565b80156111ac5780601f10611181576101008083540402835291602001916111ac565b820191906000526020600020905b81548152906001019060200180831161118f57829003601f168201915b50505050508152505081526020016016820160009054906101000a900460ff16151515158152505090508060e0015161121a576040517f08c379a0000000000000000000000000000000000000000000000000000000008152600401611211906138c7565b60405180910390fd5b80915050919050565b60006020528060005260406000206000915090508060000160009054906101000a900473ffffffffffffffffffffffffffffffffffffffff169080600101805461126c90613464565b80601f016020809104026020016040519081016040528092919081815260200182805461129890613464565b80156112e55780601f106112ba576101008083540402835291602001916112e5565b820191906000526020600020905b8154815290600101906020018083116112c857829003601f168201915b505050505090806002015490806003016040518060a001604052908160008201805461131090613464565b80601f016020809104026020016040519081016040528092919081815260200182805461133c90613464565b80156113895780601f1061135e57610100808354040283529160200191611389565b820191906000526020600020905b81548152906001019060200180831161136c57829003601f168201915b505050505081526020016001820160009054906101000a900460ff161515151581526020016001820160019054906101000a900460ff161515151581526020016001820160029054906101000a900460ff161515151581526020016001820160039054906101000a900460ff1615151515815250509080600501604051806080016040529081600082015481526020016001820154815260200160028201805461143290613464565b80601f016020809104026020016040519081016040528092919081815260200182805461145e90613464565b80156114ab5780601f10611480576101008083540402835291602001916114ab565b820191906000526020600020905b81548152906001019060200180831161148e57829003601f168201915b505050505081526020016003820180546114c490613464565b80601f01602080910402602001604051908101604052809291908181526020018280546114f090613464565b801561153d5780601f106115125761010080835404028352916020019161153d565b820191906000526020600020905b81548152906001019060200180831161152057829003601f168201915b5050505050815250509080600901604051806080016040529081600082016040518060800160405290816000820160009054906101000a900460ff161515151581526020016000820160019054906101000a900460ff161515151581526020016000820160029054906101000a900460ff1615151515815260200160018201805480602002602001604051908101604052809291908181526020016000905b828210156116885783829060005260206000200180546115fb90613464565b80601f016020809104026020016040519081016040528092919081815260200182805461162790613464565b80156116745780601f1061164957610100808354040283529160200191611674565b820191906000526020600020905b81548152906001019060200180831161165757829003601f168201915b5050505050815260200190600101906115dc565b50505050815250508152602001600282016040518060400160405290816000820160009054906101000a900460ff1615151515815260200160018201805480602002602001604051908101604052809291908181526020016000905b8282101561179057838290600052602060002001805461170390613464565b80601f016020809104026020016040519081016040528092919081815260200182805461172f90613464565b801561177c5780601f106117515761010080835404028352916020019161177c565b820191906000526020600020905b81548152906001019060200180831161175f57829003601f168201915b5050505050815260200190600101906116e4565b5050505081525050815260200160048201805480602002602001604051908101604052809291908181526020016000905b8282101561186d5783829060005260206000200180546117e090613464565b80601f016020809104026020016040519081016040528092919081815260200182805461180c90613464565b80156118595780601f1061182e57610100808354040283529160200191611859565b820191906000526020600020905b81548152906001019060200180831161183c57829003601f168201915b5050505050815260200190600101906117c1565b50505050815260200160058201805480602002602001604051908101604052809291908181526020016000905b828210156119f057838290600052602060002090600202016040518060400160405290816000820180546118cd90613464565b80601f01602080910402602001604051908101604052809291908181526020018280546118f990613464565b80156119465780601f1061191b57610100808354040283529160200191611946565b820191906000526020600020905b81548152906001019060200180831161192957829003601f168201915b5050505050815260200160018201805461195f90613464565b80601f016020809104026020016040519081016040528092919081815260200182805461198b90613464565b80156119d85780601f106119ad576101008083540402835291602001916119d8565b820191906000526020600020905b8154815290600101906020018083116119bb57829003601f168201915b5050505050815250508152602001906001019061189a565b50505050815250509080600f016040518060e00160405290816000820154815260200160018201548152602001600282018054611a2c90613464565b80601f0160208091040260200160405190810160405280929190818152602001828054611a5890613464565b8015611aa55780601f10611a7a57610100808354040283529160200191611aa5565b820191906000526020600020905b815481529060010190602001808311611a8857829003601f168201915b50505050508152602001600382018054611abe90613464565b80601f0160208091040260200160405190810160405280929190818152602001828054611aea90613464565b8015611b375780601f10611b0c57610100808354040283529160200191611b37565b820191906000526020600020905b815481529060010190602001808311611b1a57829003601f168201915b50505050508152602001600482018054611b5090613464565b80601f0160208091040260200160405190810160405280929190818152602001828054611b7c90613464565b8015611bc95780601f10611b9e57610100808354040283529160200191611bc9565b820191906000526020600020905b815481529060010190602001808311611bac57829003601f168201915b50505050508152602001600582018054611be290613464565b80601f0160208091040260200160405190810160405280929190818152602001828054611c0e90613464565b8015611c5b5780601f10611c3057610100808354040283529160200191611c5b565b820191906000526020600020905b815481529060010190602001808311611c3e57829003601f168201915b50505050508152602001600682018054611c7490613464565b80601f0160208091040260200160405190810160405280929190818152602001828054611ca090613464565b8015611ced5780601f10611cc257610100808354040283529160200191611ced565b820191906000526020600020905b815481529060010190602001808311611cd057829003601f168201915b505050505081525050908060160160009054906101000a900460ff16905088565b600160009054906101000a900473ffffffffffffffffffffffffffffffffffffffff1681565b828054828255906000526020600020908101928215611d7c579160200282015b82811115611d7b578251829081611d6b9190613641565b5091602001919060010190611d54565b5b509050611d899190611e02565b5090565b604051806101000160405280600073ffffffffffffffffffffffffffffffffffffffff1681526020016060815260200160008152602001611dcc611e26565b8152602001611dd9611e5d565b8152602001611de6611e85565b8152602001611df3611eb9565b81526020016000151581525090565b5b80821115611e225760008181611e199190611ef6565b50600101611e03565b5090565b6040518060a00160405280606081526020016000151581526020016000151581526020016000151581526020016000151581525090565b6040518060800160405280600081526020016000815260200160608152602001606081525090565b6040518060800160405280611e98611f36565b8152602001611ea5611f64565b815260200160608152602001606081525090565b6040518060e00160405280600081526020016000815260200160608152602001606081526020016060815260200160608152602001606081525090565b508054611f0290613464565b6000825580601f10611f145750611f33565b601f016020900490600052602060002090810190611f329190611f80565b5b50565b6040518060800160405280600015158152602001600015158152602001600015158152602001606081525090565b6040518060400160405280600015158152602001606081525090565b5b80821115611f99576000816000905550600101611f81565b5090565b6000604051905090565b600080fd5b600080fd5b600080fd5b600080fd5b6000601f19601f8301169050919050565b7f4e487b7100000000000000000000000000000000000000000000000000000000600052604160045260246000fd5b61200482611fbb565b810181811067ffffffffffffffff8211171561202357612022611fcc565b5b80604052505050565b6000612036611f9d565b90506120428282611ffb565b919050565b600067ffffffffffffffff82111561206257612061611fcc565b5b61206b82611fbb565b9050602081019050919050565b82818337600083830152505050565b600061209a61209584612047565b61202c565b9050828152602081018484840111156120b6576120b5611fb6565b5b6120c1848285612078565b509392505050565b600082601f8301126120de576120dd611fb1565b5b81356120ee848260208601612087565b91505092915050565b6000819050919050565b61210a816120f7565b811461211557600080fd5b50565b60008135905061212781612101565b92915050565b600080fd5b600080fd5b60008115159050919050565b61214c81612137565b811461215757600080fd5b50565b60008135905061216981612143565b92915050565b600060a082840312156121855761218461212d565b5b61218f60a061202c565b9050600082013567ffffffffffffffff8111156121af576121ae612132565b5b6121bb848285016120c9565b60008301525060206121cf8482850161215a565b60208301525060406121e38482850161215a565b60408301525060606121f78482850161215a565b606083015250608061220b8482850161215a565b60808301525092915050565b60006080828403121561222d5761222c61212d565b5b612237608061202c565b9050600061224784828501612118565b600083015250602061225b84828501612118565b602083015250604082013567ffffffffffffffff81111561227f5761227e612132565b5b61228b848285016120c9565b604083015250606082013567ffffffffffffffff8111156122af576122ae612132565b5b6122bb848285016120c9565b60608301525092915050565b600067ffffffffffffffff8211156122e2576122e1611fcc565b5b602082029050602081019050919050565b600080fd5b600061230b612306846122c7565b61202c565b9050808382526020820190506020840283018581111561232e5761232d6122f3565b5b835b8181101561237557803567ffffffffffffffff81111561235357612352611fb1565b5b80860161236089826120c9565b85526020850194505050602081019050612330565b5050509392505050565b600082601f83011261239457612393611fb1565b5b81356123a48482602086016122f8565b91505092915050565b6000608082840312156123c3576123c261212d565b5b6123cd608061202c565b905060006123dd8482850161215a565b60008301525060206123f18482850161215a565b60208301525060406124058482850161215a565b604083015250606082013567ffffffffffffffff81111561242957612428612132565b5b6124358482850161237f565b60608301525092915050565b6000604082840312156124575761245661212d565b5b612461604061202c565b905060006124718482850161215a565b600083015250602082013567ffffffffffffffff81111561249557612494612132565b5b6124a18482850161237f565b60208301525092915050565b600067ffffffffffffffff8211156124c8576124c7611fcc565b5b602082029050602081019050919050565b6000604082840312156124ef576124ee61212d565b5b6124f9604061202c565b9050600082013567ffffffffffffffff81111561251957612518612132565b5b612525848285016120c9565b600083015250602082013567ffffffffffffffff81111561254957612548612132565b5b612555848285016120c9565b60208301525092915050565b600061257461256f846124ad565b61202c565b90508083825260208201905060208402830185811115612597576125966122f3565b5b835b818110156125de57803567ffffffffffffffff8111156125bc576125bb611fb1565b5b8086016125c989826124d9565b85526020850194505050602081019050612599565b5050509392505050565b600082601f8301126125fd576125fc611fb1565b5b813561260d848260208601612561565b91505092915050565b60006080828403121561262c5761262b61212d565b5b612636608061202c565b9050600082013567ffffffffffffffff81111561265657612655612132565b5b612662848285016123ad565b600083015250602082013567ffffffffffffffff81111561268657612685612132565b5b61269284828501612441565b602083015250604082013567ffffffffffffffff8111156126b6576126b5612132565b5b6126c28482850161237f565b604083015250606082013567ffffffffffffffff8111156126e6576126e5612132565b5b6126f2848285016125e8565b60608301525092915050565b600060e082840312156127145761271361212d565b5b61271e60e061202c565b9050600061272e84828501612118565b600083015250602061274284828501612118565b602083015250604082013567ffffffffffffffff81111561276657612765612132565b5b612772848285016120c9565b604083015250606082013567ffffffffffffffff81111561279657612795612132565b5b6127a2848285016120c9565b606083015250608082013567ffffffffffffffff8111156127c6576127c5612132565b5b6127d2848285016120c9565b60808301525060a082013567ffffffffffffffff8111156127f6576127f5612132565b5b612802848285016120c9565b60a08301525060c082013567ffffffffffffffff81111561282657612825612132565b5b612832848285016120c9565b60c08301525092915050565b60008060008060008060c0878903121561285b5761285a611fa7565b5b600087013567ffffffffffffffff81111561287957612878611fac565b5b61288589828a016120c9565b965050602061289689828a01612118565b955050604087013567ffffffffffffffff8111156128b7576128b6611fac565b5b6128c389828a0161216f565b945050606087013567ffffffffffffffff8111156128e4576128e3611fac565b5b6128f089828a01612217565b935050608087013567ffffffffffffffff81111561291157612910611fac565b5b61291d89828a01612616565b92505060a087013567ffffffffffffffff81111561293e5761293d611fac565b5b61294a89828a016126fe565b9150509295509295509295565b600073ffffffffffffffffffffffffffffffffffffffff82169050919050565b600061298282612957565b9050919050565b61299281612977565b811461299d57600080fd5b50565b6000813590506129af81612989565b92915050565b6000602082840312156129cb576129ca611fa7565b5b60006129d9848285016129a0565b91505092915050565b6129eb81612977565b82525050565b600081519050919050565b600082825260208201905092915050565b60005b83811015612a2b578082015181840152602081019050612a10565b60008484015250505050565b6000612a42826129f1565b612a4c81856129fc565b9350612a5c818560208601612a0d565b612a6581611fbb565b840191505092915050565b612a79816120f7565b82525050565b612a8881612137565b82525050565b600060a0830160008301518482036000860152612aab8282612a37565b9150506020830151612ac06020860182612a7f565b506040830151612ad36040860182612a7f565b506060830151612ae66060860182612a7f565b506080830151612af96080860182612a7f565b508091505092915050565b6000608083016000830151612b1c6000860182612a70565b506020830151612b2f6020860182612a70565b5060408301518482036040860152612b478282612a37565b91505060608301518482036060860152612b618282612a37565b9150508091505092915050565b600081519050919050565b600082825260208201905092915050565b6000819050602082019050919050565b6000612ba68383612a37565b905092915050565b6000602082019050919050565b6000612bc682612b6e565b612bd08185612b79565b935083602082028501612be285612b8a565b8060005b85811015612c1e5784840389528151612bff8582612b9a565b9450612c0a83612bae565b925060208a01995050600181019050612be6565b50829750879550505050505092915050565b6000608083016000830151612c486000860182612a7f565b506020830151612c5b6020860182612a7f565b506040830151612c6e6040860182612a7f565b5060608301518482036060860152612c868282612bbb565b9150508091505092915050565b6000604083016000830151612cab6000860182612a7f565b5060208301518482036020860152612cc38282612bbb565b9150508091505092915050565b600081519050919050565b600082825260208201905092915050565b6000819050602082019050919050565b60006040830160008301518482036000860152612d198282612a37565b91505060208301518482036020860152612d338282612a37565b9150508091505092915050565b6000612d4c8383612cfc565b905092915050565b6000602082019050919050565b6000612d6c82612cd0565b612d768185612cdb565b935083602082028501612d8885612cec565b8060005b85811015612dc45784840389528151612da58582612d40565b9450612db083612d54565b925060208a01995050600181019050612d8c565b50829750879550505050505092915050565b60006080830160008301518482036000860152612df38282612c30565b91505060208301518482036020860152612e0d8282612c93565b91505060408301518482036040860152612e278282612bbb565b91505060608301518482036060860152612e418282612d61565b9150508091505092915050565b600060e083016000830151612e666000860182612a70565b506020830151612e796020860182612a70565b5060408301518482036040860152612e918282612a37565b91505060608301518482036060860152612eab8282612a37565b91505060808301518482036080860152612ec58282612a37565b91505060a083015184820360a0860152612edf8282612a37565b91505060c083015184820360c0860152612ef98282612a37565b9150508091505092915050565b600061010083016000830151612f1f60008601826129e2565b5060208301518482036020860152612f378282612a37565b9150506040830151612f4c6040860182612a70565b5060608301518482036060860152612f648282612a8e565b91505060808301518482036080860152612f7e8282612b04565b91505060a083015184820360a0860152612f988282612dd6565b91505060c083015184820360c0860152612fb28282612e4e565b91505060e0830151612fc760e0860182612a7f565b508091505092915050565b60006020820190508181036000830152612fec8184612f06565b905092915050565b612ffd81612977565b82525050565b600082825260208201905092915050565b600061301f826129f1565b6130298185613003565b9350613039818560208601612a0d565b61304281611fbb565b840191505092915050565b613056816120f7565b82525050565b600060a08301600083015184820360008601526130798282612a37565b915050602083015161308e6020860182612a7f565b5060408301516130a16040860182612a7f565b5060608301516130b46060860182612a7f565b5060808301516130c76080860182612a7f565b508091505092915050565b60006080830160008301516130ea6000860182612a70565b5060208301516130fd6020860182612a70565b50604083015184820360408601526131158282612a37565b9150506060830151848203606086015261312f8282612a37565b9150508091505092915050565b600060808301600083015184820360008601526131598282612c30565b915050602083015184820360208601526131738282612c93565b9150506040830151848203604086015261318d8282612bbb565b915050606083015184820360608601526131a78282612d61565b9150508091505092915050565b600060e0830160008301516131cc6000860182612a70565b5060208301516131df6020860182612a70565b50604083015184820360408601526131f78282612a37565b915050606083015184820360608601526132118282612a37565b9150506080830151848203608086015261322b8282612a37565b91505060a083015184820360a08601526132458282612a37565b91505060c083015184820360c086015261325f8282612a37565b9150508091505092915050565b61327581612137565b82525050565b600061010082019050613291600083018b612ff4565b81810360208301526132a3818a613014565b90506132b2604083018961304d565b81810360608301526132c4818861305c565b905081810360808301526132d881876130d2565b905081810360a08301526132ec818661313c565b905081810360c083015261330081856131b4565b905061330f60e083018461326c565b9998505050505050505050565b60006020820190506133316000830184612ff4565b92915050565b7f446f6e6f7220616c726561647920726567697374657265642e00000000000000600082015250565b600061336d601983613003565b915061337882613337565b602082019050919050565b6000602082019050818103600083015261339c81613360565b9050919050565b7f446f6e6f72206d757374206265206174206c656173742031382079656172732060008201527f6f6c642e00000000000000000000000000000000000000000000000000000000602082015250565b60006133ff602483613003565b915061340a826133a3565b604082019050919050565b6000602082019050818103600083015261342e816133f2565b9050919050565b7f4e487b7100000000000000000000000000000000000000000000000000000000600052602260045260246000fd5b6000600282049050600182168061347c57607f821691505b60208210810361348f5761348e613435565b5b50919050565b60008190508160005260206000209050919050565b60006020601f8301049050919050565b600082821b905092915050565b6000600883026134f77fffffffffffffffffffffffffffffffffffffffffffffffffffffffffffffffff826134ba565b61350186836134ba565b95508019841693508086168417925050509392505050565b6000819050919050565b600061353e613539613534846120f7565b613519565b6120f7565b9050919050565b6000819050919050565b61355883613523565b61356c61356482613545565b8484546134c7565b825550505050565b600090565b613581613574565b61358c81848461354f565b505050565b5b818110156135b0576135a5600082613579565b600181019050613592565b5050565b601f8211156135f5576135c681613495565b6135cf846134aa565b810160208510156135de578190505b6135f26135ea856134aa565b830182613591565b50505b505050565b600082821c905092915050565b6000613618600019846008026135fa565b1980831691505092915050565b60006136318383613607565b9150826002028217905092915050565b61364a826129f1565b67ffffffffffffffff81111561366357613662611fcc565b5b61366d8254613464565b6136788282856135b4565b600060209050601f8311600181146136ab5760008415613699578287015190505b6136a38582613625565b86555061370b565b601f1984166136b986613495565b60005b828110156136e1578489015182556001820191506020850194506020810190506136bc565b868310156136fe57848901516136fa601f891682613607565b8355505b6001600288020188555050505b505050505050565b7f4e487b7100000000000000000000000000000000000000000000000000000000600052603260045260246000fd5b7f4e487b7100000000000000000000000000000000000000000000000000000000600052601160045260246000fd5b600061377c826120f7565b91507fffffffffffffffffffffffffffffffffffffffffffffffffffffffffffffffff82036137ae576137ad613742565b5b600182019050919050565b60006040820190506137ce6000830185612ff4565b81810360208301526137e08184613014565b90509392505050565b7f4f6e6c792061646d696e2063616e20706572666f726d2074686973206163746960008201527f6f6e2e0000000000000000000000000000000000000000000000000000000000602082015250565b6000613845602383613003565b9150613850826137e9565b604082019050919050565b6000602082019050818103600083015261387481613838565b9050919050565b7f446f6e6f72206e6f7420726567697374657265642e0000000000000000000000600082015250565b60006138b1601583613003565b91506138bc8261387b565b602082019050919050565b600060208201905081810360008301526138e0816138a4565b905091905056fea26469706673582212209bf28f4d5b7db5d0839643bab6b199c4eb31751b8cc921f0d2ebaff05f1109fc64736f6c63430008130033",
  "linkReferences": {},
  "deployedLinkReferences": {}
}